:020000041008E2
:4000000000780408EB0208100D00000051030810510308105103081051030810000000000000000000000000000000004D0308104D030810000000004D0308104D030810DA
:400040004D0308104D0308104D0308104D0308104D0308104D0308104D0308104D0308104D0308104D0308104D0308104D0308104D0308104D0308104D0308104D03081000
:400080004D0308104D0308104D0308104D0308104D0308104D0308104D0308104D0308104D0308104D0308104D0308104D0308104D0308104D0308104D0308104D030810C0
:4000C0004D0308104D0308104D0308104D0308104D0308104D0308104D0308104D0308104D0308104D0308104D0308104D0308104D0308104D0308104D0308104D03081080
:400100004D0308104D0308104D0308104D0308104D0308104D0308104D0308104D0308104D0308104D0308104D0308104D0308104D0308104D0308104D0308104D0308103F
:400140004D0308104D0308104D0308104D0308104D0308104D0308104D0308104D0308104D0308104D0308104D0308104D0308104D0308104D0308104D0308104D030810FF
:400180004D0308104D0308104D0308104D0308104D0308104D0308104D0308104D0308104D0308104D0308104D0308104D0308104D0308104D0308104D0308104D030810BF
:4001C0004D0308104D0308104D0308104D0308104D0308104D0308104D0308104D0308104D0308104D0308104D0308104D0308104D0308104D0308104D0308104D0308107F
:400200004D0308104D0308104D0308104D0308104D0308104D0308104D0308104D0308104D0308104D0308104D0308104D0308104D0308104D0308104D0308104D0308103E
:400240004D0308104D0308104D0308104D0308104D0308104D0308104D0308104D0308104D0308104D0308104D0308104D0308104D0308104D0308104D0308104D030810FE
:400280004D0308104D0308104D03081010B5054C237833B9044B13B10448AFF300800123237010BD947602080000000068890810084B10B51BB108490848AFF30080084850
:4002C000036803B910BD074B002BFBD0BDE81040184700BF00000000987602086889081050470208000000007047FFF7FDFF72B6104C114DAC4209DA21686268A368043BF4
:40030000A2BFC858D050FAE70C34F3E70B490C4A00209142BCBF41F8040BFAE709480A490860BFF34F8F00F0B9FB00F093FB00F0BDFAFEE7CCAC0A10E4AC0A109476020846
:400340007C8802080040020808ED00E0FEE7FEE700B504207146084202D0EFF3098001E0EFF30880043001F07FFBFEE7044A0123C2F83031D2F83021024A1370704700BFB3
:4003800000003840B07602080FB410B5C2B044AB53F8042B01934FF4807102A806F062F8041E03DD02A9044801F0F4FF204642B0BDE8104004B07047000062400FB400B5C1
:4003C000C3B044AB53F8042B0193FE2102A806F049F802A90348FFF7D7FF43B05DF804EB04B07047586D08100F4B08225A600F490A6892F87D00C25822F4704242F40042E3
:40040000C25010229A600A6892F87D10CA5822F4702242F42022CA501B6913F0100F01D0002070470220704700053240CC870208F8B504F029FB0028FBD104F0D1F8002008
:4004400004F0E0F906461E4C1023A3601D4F3B6893F87D20135923F4702343F420231351082363603B6893F87D20135923F4704343F4604313510A2001F0D2FA2569C5F33E
:4004800000153B6893F87D20135923F4704343F4004313513B6893F87D20135923F4702343F4002313510A2001F0BAFA04F03AFB15B11EB10220F8BD0020F8BD0120F8BD9A
:4004C00000053240CC87020810B512490B6893F87D00114A835823F4704343F4004383500B6893F87D108B5823F4702343F400238B5004F0C9FA0028FBD104F071F80020CB
:4005000004F080F9044604F00DFB0CB1022010BD002010BDCC8702080005324070B50F4B1B78A3B90E4C4025A5604FF47A7001F05FFA656070BD0A4D4026AE60962001F08E
:4005400057FA6E60962001F053FA013400E00024024B1B789C42EEDB70BD00BF8C42020880043240134B5B7813B310B58CB006AC01910090104B114A1521204605F0F0FEED
:400580000F4B1B88ADF814301223ADF810300294204605F021FFADF80C0002A80FF056FDB0FA80F4640929F019FF20460CB010BD18467047B0760208606D0810646D0810BF
:4005C000C887020810B504461E48FFF7DDFE24B940F2A5511C4801F02FFA21461B4801F0D9FE1B48FFF7EAFE1A49204605F0EAFE30B90122184B1A701848FFF7DFFE1DE037
:400600001749204605F0DEFE30B90222124B1A701448FFF7D3FE11E01349204605F0D2FE30B903220C4B1A701048FFF7C7FE05E00022094B1A700E48FFF7C0FE0122064B2F
:400640005A7010BD746D0810846D081000006240C46D0810C86D08108C420208D46D0810E46D0810F06D0810006E0810106E0810206E081010B586B044F2080398420ED0E4
:400680000C4603D8B0F5805F09D039E045F2010398420BD045F20C0398420ED030E00020184B5870014603F095F929E00122154B5A700A88144B1A8022E00B89162B16D1E7
:4006C0000023009301930293039304938DF814308A88142A00D914222168684605F02DFEE0680FF0C1FC6846FFF76CFF08E0142B03D1C8680FF0B8FC02E0C8680FF0B4FCBD
:4007000006B010BDB0760208C88702082DE9F041564C5749204601F031F9B4F90030002B08DB5A0903F01F00012181406032514840F82210002B08DB590903F01F03012223
:4007400002FA03F34B4A42F8213062B64A4C4B4A0021204602F0B8F90126A660266103F0C9FE4748FFF72AFE4648FFF70DFE464803F0F2FE454C2046FFF720FE4448FFF752
:4007800003FE03F017FF04F0CDF92046FFF716FE4048FFF713FE0024254603E0012600E001262C4629F01AFE3B4B5B782BB10024394B5C70FFF7B2FE0126384B1B7813F0A4
:4007C000FF0FEFD00022354B1A70334B1B78012B03D1FFF709FE05460AE0022B03D1FFF727FE054604E0032B02D1FFF76DFE0546022D03D040222A4B5A6002E04022284B7B
:400800009A60002DCAD0A542CAD10136224B1B78012B01D10C2E07D0022B01D11C2E03D0032BBED1022EBCD1022D09D11B4C61680120FFF797FE61681A48FFF7BFFD0FE0E8
:40084000174C4027A760DFF85480D8F804100120FFF788FED8F804101348FFF7AFFD67600E4A5368013353609BE700BFCC6E08106D03081000E100E00000384014790810E0
:40088000346E0810486E081075060810746E0810586E08106C6E08108C420208B0760208800432407C6E08108C6E081008B5FFF72DFF00BF08B5012000F0E6FE08BD00BF6D
:4008C000704700BF5C4AD2F8803303F00F0303F1D00152F8212002F00702032A04D0042A05D092B9554914E0554A116811E003F1C002514951F8222002F01F02112A06D026
:40090000132A04D04FF4FA4103E04E4901E04FF400418BBB484BD3F8902502F00100D3F88825C2F30172D3F8883513F0405F07D0414BD3F88835C3F30173012B02D102E03D
:40094000012300E0002303B108B9032A46D13A48D0F88025C2F31103D0F88425C2F30C02D0F88005C0F300600130B1FBF2F202FB03F2B2FBF0F131E0012B2FD12E4BD3F889
:40098000402602F00100D3F80026C2F30172D3F8003613F0405F07D0274BD3F80036C3F30173012B02D102E0012300E0002303B108B9032A12D12048D0F8002602F07F0258
:4009C000D0F80036C3F30423D0F80006C0F3044002FB01F2B2FBF3F2B2FBF0F1164BD3F88033C3F3011321FA03F215494A601648D0F89030C3F3072301330069000E0130E4
:400A0000B2FBF0F08860B2FBF3F3CB600B6103F5742202F23F220D48A0FB0202C2F387420A7503F2E7330A4AA2FB03239B098B61DB03CB61704700BF0000264000127A001B
:400A40009042020800366E010000214083DE1B43D34D621008B50D4801F03AFCFFF730FFFFF730FF00221146042000F091FB084800F068FC074B1B6893F8513013B1064810
:400A800000F0D0FC00F0E8F808BD00BF70720810B8760208CC870208986E081008B501F040F8074AD2F8883043F47003C2F88830BFF34F8FBFF36F8F01F037F808BD00BFC0
:400AC00000ED00E0C0F30800B0FA80F0400970471F4B98422DD00CD840282ED003D8E8B1102828D02FE0802829D0B0F5807F28D029E0184B984228D006D8B0F1204F0DD0D0
:400B0000154B984212D01EE0144B98420AD00133984209D0023B984215D101E0002070470F4870470F4870470F4870474FF4A0007047074870470D4870470D4870470D48B5
:400B40007047034870470C4870474FF4A400704706005200010000F0090000A0040000F0010052000200520003005200010050000200500005005200FF00520038B5124B9C
:400B80001B6893F83130012B04D840F2C3110F4800F052FF0C4B1D682A6AB5F8B03013442C46D5F8B420D358002B0BDB084B1868FFF78EFF6B6801229A6063689B68002B3E
:400BC000FBD138BD034838BDCC870208EC6E081038780208020050001A4B186128B102230370FF23437000234380174B1B6893F850202AB300B583B0B3F93830ADF8003081
:400C0000002301931149684600F0B8FEBDF90030002B08DB590903F01F03012202FA03F30B4A42F82130084B1B6893F8513023B102220849012000F0A1FC03B05DF804FB0F
:400C4000704700BF38780208CC870208C147020800E100E07948020808B50248FFF7BCFF08BD00BF4C78020838B505460C46FFF729FF002833D0002C33D0FFF723FE1A4BC1
:400C80001A4A1A6000225A609D60DC60184B1B6893F85220EAB11968D3F88430CA58CB58C3F30721120E531C01FB0333114901FB03F3114A12681149A1FB02218909B3FB65
:400CC000F1F101F5195108314FF4807006F03CF838BD00214FF4807006F036F838BD084838BD074838BD00BF3878020800010005CC870208C0EA210194420208D34D621017
:400D00000600520008B5FFF739FF08BD10B50446FFF7D8FE00283AD0FFF7D4FD4FF0E0521C4B1A601C4B1B7813F0FF0F04D0194A136843F480731360164B5C6000229A60F2
:400D4000DA60164B1B6893F85420DAB11968D3F88430CA58CB58C3F30721120E531C01FB03330F4901FB03F30E4A12680E49A1FB02218909B3FBF1F101F69801002005F0EE
:400D8000E3FF10BD0021084605F0DEFF10BD074810BD00BF387802080B000016CC87020860F5900094420208D34D62100600520038B505460C46FFF785FE00283DD0002C50
:400DC0003DD0FFF77FFD4FF0C0621E4B1A601E4B1B7813F0FF0F04D01A4A136843F480731360184B4FF480725A609D60DC60174B1B6893F85320DAB11968D3F88430CA58B8
:400E0000CB58C3F30721120E531C01FB0333104901FB03F30F4A12680F49A1FB02218909B3FBF1F101F56171002005F08DFF38BD0021084605F088FF38BD084838BD0748C7
:400E400038BD00BF387802080B000016CC870208808D5B0094420208D34D621006005200002861D0F8B5054600295FD00C460B6833F0FF0303D099212D4800F0DDFD236969
:400E800033F0FF0303D09A21294800F0D5FDA3685B0D5B051BB19B21254800F0CDFD636823F4FF7323F001031BB19C21204800F0C3FDE36913F0604F03D09D211C4800F0DB
:400EC000BBFD236A13F0604F03D09E21184800F0B3FD184A11688B69EB1ADB0949691B01C81826682E60166896F87D60E768AF51166896F87E602769AF51166896F87F604A
:400F00006769AF51166896F87C60A768AF516668AE61126892F88020A669AE50E269CA50236A43600020F8BD034870470248F8BD2C6F0810CC87020801005A002DE9F0413F
:400F400004460D46174698469DF81860072903D9D921354800F070FD37F00F0303D0DA21314800F069FDB8F1010F03D9DB212E4800F062FD36F01F0303D0DC212A4800F006
:400F80005BFD22680123AB4022EA030308F0010808FA05F843EA08032360244B1B6893F87D100B59A8000F22824023EA020207F00F0303FA00F717430F51072D04D94FF44E
:400FC00022711B4800F038FD36F01F0304D040F28921174800F030FD144B1B689A69A41AE4095B6924011919032D0DD81959ED001F22AA4021EA020206F01F0606FA05F5F4
:4010000015431D51BDE8F081043D4A68ED001F23AB4022EA030306F01F0606FA05F51D434D60BDE8F08100BF2C6F0810CC8702086C6F081038B50B4B1B68D3F8B4301B58D3
:40104000002B0DDA0D4604460B0C1B0423B140F2D521054800F0F0FCA9B26160002038BD024838BDCC870208AC6F081001008A0038B50368002B01DA002300E0094B73B9FA
:401080000D460446C2600B0C1B0423B140F2BB21054800F0D1FCA9B2A160002038BD014838BD00BF01008A00AC6F081038B504460D4619B99921084800F0BEFC074B1B683E
:4010C000D3F8B4301B59002B03DAE3682B60002038BD034838BD00BFEC6F0810CC87020801008A00254B1B6893F8313083423AD900293AD00B6813F01F0F38D170B50D4671
:4011000004461E4B1B6893F83130984204D340F2C3111B4800F090FC184B1B68186AB3F8B03004FB0304174E34602A68D2080021686805F00DF900212046FFF77BFF34681A
:4011400025B940F293310E4800F076FC2A4600212046FFF78DFF60B900210A4B1868FFF769FF40B970BD084870470748704706487047064870BD054870BD00BFCC870208B4
:40118000AC6F08105078020803018A0001018A0010B504461346B2B9A9B9124B1B6893F83130984204D340F2C3110F4800F044FC0C4B1B681A6AB3F8B03004FB03240B4B6C
:4011C0001C60002010BD43B149B1084A51609360111D2046FFF786FF10BD054810BD044810BD00BFCC870208AC6F08105078020803018A002DE9F0411B4B1B68DC682368E5
:4012000083422CD90D464609A0EB4610012303FA00F819B900F085FC074600E00027124B18680368002B01DA002300E00F4B83B9626852F8263018EA030F05D148EA03033E
:4012400042F82630002400E0094C0021FFF7F2FE00E0084C25B9384600F067FC00E0064C2046BDE8F08100BF5078020801008A00020188000301880004018A002DE9F041E4
:401280001B4B1B68DC68236883422CD90D464609A0EB4610012303FA00F819B900F041FC074600E00027124B18680368002B01DA002300E00F4B83B9626852F8263018EA6A
:4012C000030F05D023EA080342F82630002400E0094C0021FFF7AEFE00E0084C25B9384600F023FC00E0064C2046BDE8F08100BF5078020801008A000201880003018800C3
:4013000004018A000B4B1B68DB681A6882420CD94109A0EB4110012202FA00F05B6853F82130184203D004487047044870470448704700BF507802080101880004018A0063
:4013400000018800024B1B680BB9014B186070475C7802082DE9F8430446884691461D46089F2C4B1B681BB9B5212B4800F064FB284B1B682C2000FB04F01C18EEB21E50D4
:40138000C5F3072363602D0CA560244B1B6893F831309E4204D340F2C311214800F04CFB1E4B1B68196AB3F8B02006FB02162661666893F832309E4204D340F2DF11184891
:4013C00000F03AFB154B1B681D6A803605EB46156561A668330C1B0423B14FF4FF71104800F02AFB330C1B0423B140F2FF110C4800F022FBB3B243EA0646AE60C4F81C900E
:40140000C4F820800023A36117B1B7F90030A381BDE8F8835C7802082C700810CC870208AC6F0810F0B58FB0044618B95221274800F002FBA369072B03D95621234800F061
:40144000FBFAE36A1BB95821204800F0F5FA236B1BB959211D4800F0EFFA07AD04F114060FCE0FC537682F6002AD26460FCE0FC533682B60164B1B68B3F93620079B134409
:40148000ADF83030089B0D93A26AE16A0CAD00953B460A98FFF75EFF00210091069B0A460598FFF757FF216B284600F067FABDF93030002B08DB590903F01F03012202FA38
:4014C00003F3044A42F821300FB0F0BD2C700810CC87020800E100E0F8B506460F461D4614461AB9FD211F4800F0A6FA1E4B1B681BB9FE211B4800F09FFA1B4B1B682C21EB
:4015000001FB063001FB07314B68012202FA03F31B04466802FA06F60269EAB18F69EFB91268002A01DA002200E0104AC2B92288134323600369DC6001238B614D62046965
:40154000330C1B0423B140F2BB21094800F074FAB2B2A2600020F8BD0648F8BD0648F8BD0548F8BD2C7008105C78020801008A00AC6F081004028A0007028A00F8B50546CE
:401580000F4616460E4B1B6823B94FF4AF710D4800F052FA0A4B1B682C2404FB0534236A23B94FF4B171074800F046FAE369B34204D9236A43F826700020F8BD0248F8BDD1
:4015C0005C7802082C7008100A028A0070B582B000230193044620B940F2D111284800F02BFA236923B94FF4E971254800F024FA636923B940F2D311214800F01DFA236ABE
:4016000023B94FF4EA711E4800F016FA6369DD682A0C20D012041A601B682069194B1B68D3F8B430C358002B15DA01A9FFF73EFD60B9019803681E0CDBB2E269934206D285
:40164000226A52F8233013B1984700E0002631462069FFF7EFFCADB275B16369ADB21D601B68636A1BB198470023636202E0A36A03B198470023A36163691B6802B070BDD0
:401680002C700810CC87020810B50446074B1B6823B940F2B111064800F0CEF9034B1B682C2000FB0430FFF791FF10BD5C7802082C70081010B50446094B1B689B6CC3403F
:4016C00013F0010F03D1BE21064800F0B5F9044B1B681B691034A402185900F00F0010BDCC8702086C70081010B504460D4B1B6893F83C30834204D84FF4A1710A4800F051
:401700009BF904F1D003094A52F8230000F00700042806D1C03452F8240000F01F0040F4807010BDCC870208AC70081000002640B0F5C26F80F09B80B2F5C26F80F0998078
:40174000B1F1807F80F09780F0B401244C4B1C70FF2805D800F00F000F26374607231DE0B0F5A06F05D200F00F030F260027384614E0C0F30325B0F5C06F07D20001C4B21F
:4017800045EA0403FF260027384607E0030203F470632B4340F60F7600273846FF2A09D81201D2B2104343F4E02347F0F00746F4702620E0B2F5A06F06D2120402F470224D
:4017C000134346F4702616E0140A240404F470241C43B2F5C06F06D2130503F47003234346F47F0607E0120602F07063234346F0706646F47026234A1268156AB2F8B02061
:40180000C2EBC202AA58002AF5DA1D4A527822B11D4AD2F81C25002A1DDA41F61F741B4A146043F63D54043A1460A2F58272D2F8184524EA07073843C2F81805D2F8140583
:4018400020EA06063343C2F814350D4B5960C2F81C15002000E00E480A4B1A68116AB2F8B030C3EBC3030B4400225A6005E0084870470748704706487047F0BC704700BFF3
:4018800060780208CC870208000026400801264001004A0070B505460022214B1A70214B1B681A6AB3F8B030C3EBC303D418D358002BF4DA1C4B1A6841F61F739A4207D159
:4018C0001A4B1A6843F63D539A4203D0002602E0002600E00126164BD3F8202522F07F4000226260D6B1D0B165B90D4B5E684408002502460023E1FB06452046294604F01E
:4019000081FB70BD064B5A68540800250023E1FB00452046294604F075FB70BD002070BD60780208CC87020808012640040126400000264038B50D4B9A680D4B9A420FD199
:401940000D46044621B940F237110A4800F074F804F11003064A52F8230042F8235038BD1030054B53F8200038BD00BF00ED00E000400208347108100000081048B338B5DE
:4019800004460D464368072B03D93221134800F053F8B4F900306268002B08DB5201D2B203F1604303F5614383F8002305E003F00F035201D2B20A49CA540A4B9A680A4BAD
:4019C0009A4208D12946B4F90000FFF7B3FF002038BD06487047002038BD00BF3471081014ED00E000ED00E0004002080100560010B5044605E0084B186800F089F8A4F5A3
:401A00000044B4F5004FF6D8044B186800FB04F000F07EF810BD00BFAC420208A842020808B5034B1B7800FB03F000F071F808BDA442020801BEFEE738B50D46044C1822F8
:401A40000146204604F0D0FCA5610020FFF7F2FFF04C0208024B1B685B6801229A607047CC870208FEE700BF08B50268254BDA6142681A6282685A62C2689A620269DA62D3
:401A800042691A6382695A63C2699A631E4A916AD963D16A1964516A5964516B9964926BDA64F1EE103A13F0900F27D0026A154B1A65426A5A65826A9A65C26ADA65026B30
:401AC0001A66426B5A66826B9A66C26BDA66026C1A67426C5A67826C9A67C26CDA67026DC3F88020426DC3F88420826DC3F88820C26DC3F88C20026EC3F89020FFF7B2FFA1
:401B000008BD00BFF04C020800ED00E0000000000230800803D001300238FCD100BF00BF7047EFF3108072B6704780F3108870474FF0B0539B899BB223B14FF0B0539B8914
:401B40009BB201E04FF48073B3F5807F15D1174A13681868D3F89810435823F00F0343F00203435013681968D3F89C208B5823F00F0343F002038B50704710B40B490B683A
:401B80001C68D3F898000A4B1B6823F440732258134343F4407323500B681A68D3F89C3004490968D1505DF8044B7047CC87020848180016441800164FF0B0539B899BB2B1
:401BC00023B14FF0B0539B899BB201E04FF48073B3F5807F15D1164A13681868D3F89810435823F00F0343F00303435013681968D3F89C208B5823F00F0343F003038B50C1
:401C0000704730B40A4803681D68D3F8984009490B6823F440732A59134343F440732B5103681A68D3F89C300968D15030BC7047CC870208201800164FF0B0539B899BB23F
:401C400023B14FF0B0539B899BB201E04FF48073B3F5807F0BD10D4B1B681968D3F898208B5823F4E04343F4C0438B507047074B1B681868D3F89810054B1B6823F4407316
:401C80004258134343F4407343507047CC870208181800164FF0B0539B899BB223B14FF0B0539B899BB201E04FF48073B3F5807F0BD1114B1B681968D3F898208B5823F4AC
:401CC000E04343F480438B50704730B40A4803681D68D3F8984009490B6823F440732A59134343F440732B5103681A68D3F89C300968D15030BC7047CC8702084C1800160E
:401D000008B54FF0B0539B899BB223B14FF0B0539B899BB201E04FF48073B3F5807F17D10E20FFF7C7FC4FF0B0535B7813F0FF0F04D04FF0B0535B78DBB200E02123222B12
:401D400002D818B9012008BD012008BD002008BD012008BD10B50446012804D940F262710F48FFF769FE1CB90E4B5869C00F00E000200D4B1B6893F844307BB1012C0DD184
:401D8000084B9B6913F0804F05D1064B9B69002B03DA012010BD012010BD002010BD00BF7871081000002640CC87020838B5154B1B6893F8443023B30D460446072804D92D
:401DC00040F2CC711048FFF737FE0E4B1B6893F8443023B10D4B9B6903F0070300E00023DBB29C420DD00948826922F0070104F007020A43826125B19C4202D9C820FFF7AE
:401E00000FFE38BDCC870208787108100000264010B30246C3680BB303680BB330B40579114B03EB85035C682346002103E0934205D019465B69002BF9D1012000E0002077
:401E400080B124B9084B03EB85056A6000E04A6111610023536105E000207047002070470020704730BC70476C78020850B310B402460479164B03EB840359680B4602E09A
:401E8000934204D05B69002BFAD1002000E00120D0B18A420ED14B6933B10D4A02EB8404636000221A610FE0094B03EB84040023636009E01A69596951615A6922B11B6915
:401EC000136101E0002070475DF8044B704700BF6C78020830B583B004460D46022808D9042806D0032804D040F6B2112848FFF7A3FD6B1EDBB2012B08D9042D06D0082D8F
:401F000004D040F6B3112248FFF796FD214800EB84004468042D12D0012D1AD111E0A3681D420AD1E3681A6800925B6801932368294668469847174B9C61646902E000208F
:401F400000E0002014B3144B9842E8D1012DE6D11CE0022D01D104E01C466369002BFBD103E00C4B9C6904B1246900200CE0A3681D4208D1E3681A6800925B6801932368AC
:401F80002946684698472469002CF0D103B030BD787108106C780208FF00420070B50546012804D94FF4E0711D48FFF745FD1D4B5B682BB101210020FFF78CFF044600E040
:401FC00000242CBBFFF7ADFD0646164B5B681BB104210020FFF77EFF134A136923F004031361012D01D030BF07E020BF0D4B1B7803B120BF01220B4B1A703046FFF795FDA8
:40200000084B5B684BB108210020FFF763FF04E002210020FFF75EFF044C204670BD00BF787108106C78020800ED00E0FF00420008B5FFF776FD074B5A6807490A4042F4CA
:4020400068525A605A68114059605B68FFF76DFD08BD00BF00002640FF00FC0FF8B50546012804D940F64C213948FFF7E5FC4FF0B0535B7813F0FF0F04D04FF0B0535B7801
:40208000DBB200E021239CB24FF0B0539B899BB223B14FF0B0539F89BFB201E04FF480770E20FFF707FB98B9B7F5807F12D1222C12D8284B1B6858684FF21801435823F0A9
:4020C00080722B0603F0807313434350002604E0214E02E0204E00E01F4EB7F5807F01D1222C02D8B7F5807F2FD01A4B1B6893F83130012B04D840F2C3111848FFF79CFCB9
:40210000144B1B681C6AB3F8B0301C44B7F5807F02D125B1124A05E01DB1124A02E0124A00E0124A01212046FEF7A2FF68B9094B1B68D3F8B4301B59002BF8DBE36803F09E
:402140007F43B3F1204F00D100263046F8BD00BF78710810CC87020804004200EC6E0810010100300300000C010000300100000C70B50446022806D0052804D040F20271FF
:402180001E48FFF759FCFFF7BBFDA0B3FFF7C9FC0646022C07D10120FFF760FF054678B9FFF7C6FC0CE0164A536923F0070343F0030353613420FFF733FCFFF76BFD0025A8
:4021C000ADB90F494B6923F0070204F0070313434B61022C02D1FFF72FFD08E09120FFF71FFCFFF7E9FC0020FFF738FF05463046FFF79BFC00E0034D284670BD7871081042
:402200000000264003004200F8B50446012804D94FF402612A48FFF70FFCFFF771FD00284AD0FFF77EFC07468CB9002147F63073244AD1504FF0B05393F84067F6B2012068
:40224000FFF70CFF0546D8B9FFF772FC18E01E4B19681C4A47F63073D1504FF0B05393F84167F6B24FF61C71535823F01F0343F00B0353500320FFF7D3FBFFF70BFD002517
:40228000B5B910494FF61C728B5823F01F0306F01F061E438E5014B9FFF7CEFC08E00720FFF7BEFBFFF788FC0020FFF7D7FE05463846FFF73AFC00E0044D2846F8BD00BF5A
:4022C00078710810000026401018001603004200014B1860704700BFCC87020810B4D0F8003303F00F03072B06D900230DE0D0F84043CC54013300E000239342F7D306E051
:40230000D0F8404321F8134001339342F8D35DF8044B704710B51446D0F80833C3F308039A4200D31C462246FFF7D8FF204610BD10B4D0F8003203F00F03072B06D9002364
:402340000DE0CC5CC0F84042013300E000239342F7D306E031F81340C0F8404201339342F8D35DF8044B704710B51446036813F4006F01D0802200E04022D0F80832C3F300
:402380000803D31AA34200D81C462246FFF7D0FF204610BD30B4036813F4006F01D0802200E04022002408E0D0F80832C3F308039A42F9D0C0F8405201340D5D002DF3D1DE
:4023C00030BC70472DE9F84305460C46036813F4006F02D04FF0800801E04FF04008D5F8007207F00F07A26A012A19D9D4F82490E262561EB9F1000F00D026B940F273515F
:402400002548FFF719FB324649462846FFF7ACFFA36A1B1AA362072F00D9400048446062D5F80832C3F30803984533D0A36A012B30D10023A362072F02D8636A1E7801E0CD
:40244000636A1E88FFF76DFBC5F840624FF40073C5F8803FD5F8803FFFF767FBD5F8883F23F4007222F0010242F4007623F4EE6323F0030323B140F22A410848FFF7DCFA2A
:40248000C5F8886F236843F002032360236B0BB101209847BDE8F88328730810687308102DE9F04105460C46036813F4006F01D0802600E040267608A769D4F81C8017B1D2
:4024C000B8F1000F04D14FF499613148FFF7B4FA424639462846FFF71DFF236A03442362E3691B1AE36173BBA368FBB1E3689E4201D8013E00E05E1E2B6813F4006F01D0F2
:40250000802300E040239E4204D34FF420712148FFF792FAD5F8043323F0FF03F6B21E43C5F804630123C5F8C83F02E00023C5F8C83F636823F001036360236B33B304200B
:402540009847BDE8F081A169D5F8002302F00F02072A00D940000844A0619E4216D95C1E2B6813F4006F01D0802300E040239C4204D34FF420710748FFF75EFAD5F804339F
:4025800023F0FF02E3B21343C5F80433BDE8F0812873081068730810002800F0A48170B50546002900F0A18116460C460B78022B03D93F21A248FFF73FFA637B023BDBB229
:4025C000062B03D940219E48FFF736FAA37B3BB1022B05D0032B03D041219948FFF72CFA94F82130012B03D942219548FFF724FA94F82830012B03D943219148FFF71CFA87
:402600002378012B06D86368083B082B94BF0023012307E0A37F2BB16368013B062B94BF002301231BB145218548FFF705FAA368053B042B03D946218148FFF7FDF9636931
:40264000FF2B03D947217E48FFF7F6F9A369FF2B03D948217A48FFF7EFF9A37C6BB1237833B9A368092B05D1A37B2BB1012304E0012302E0012300E000231BB14A21704831
:40268000FFF7DAF9636B23F4366323F00D031BB14C216B48FFF7D0F9E36B23F4EE6323F003031BB14D216648FFF7C6F92378022B01D1A37F13B16268013A00E00022237F70
:4026C00013B14FF4803100E00021A368082B02D84FF4006300E000230B4302F00F02134343F000732B60226B2B6813F4006F01D0802300E040239A4203D362215048FFF778
:402700009BF9A26B2B6813F4006F01D0802300E040239A4203D363214948FFF78DF9626A2B6813F4006F01D0802300E040239A4203D364214248FFF77FF923781B0603F08B
:4027400040732B64637F0BB1402200E00022A37C13B14FF4806300E000231343227C12B14FF4807200E000221343627C12B14FF4007200E000221A43E36A013B1B0403F471
:4027800070231343627B013A02F007021343A27B120102F030021343AB64237B13B14FF4807200E00022E37B23B92378022B03D1012302E0012300E0002313B14FF40073F8
:4027C00000E000231A43A368013B03F00F031343C5F80033227DA3691B0403F47F031343C5F81033E26AD5F8003303F00F0303339A4201D3102A03D97A211148FFF71CF902
:40280000E37F23B12378012B03D0002302E0002300E0012313B14FF4807200E00022637B013B03F007031A43A37B1B0103F0300313436B64237B2BB14FF4807203E000BF57
:40284000AC7308100022A368013B03F00F0313432278012A02D14FF4803200E000221343C5F8003294F83030C5F8043394F8203013B14FF0007200E0002294F82130012B4D
:4028800002D14FF0807300E00023134394F82820012A02D14FF4803200E00022134394F8242013432B6594F83830C5F80432636B23F4926323F002031B051B0DC5F8C83F00
:4028C000E36B23F08C035B055B0DC5F8883F76B1002070603060B060F0603062F0623063044B736370BD04487047034870BD002070BD00BFEFCDAB000160AA000B694A69AC
:40290000934202D34869181A7047CA694869101A184470472DE9F04107460D46036813F4006F02D04FF0800801E04FF040084FEA5808D7F80863C6F308062C6926E00134FF
:40294000EB689C4200D100246B699C420FD12B6B0BB1082098476B699C4208D10023C7F8C83F0CB1013C13E0EC68013C10E0D7F84023D7F8003303F00F03072B02D8AB680C
:402980001A5502E0AB6823F81420013E002ED6D12C61EC6829463846FFF7B0FF201A804519D908B1441E00E000243B6813F4006F01D0802300E040239C4204D34FF4207174
:4029C0000648FFF739F8D7F8040320F0FF03E0B21843C7F80403BDE8F08100BF6873081038B504460D46D0F8003E13F0080F35D0D0F8CC3F13F448730AD04A681A434A6028
:402A0000C0F8C03FD0F8C03F0B6B0BB110209847D4F8CC3F13F4006F09D06B6843F400636B604FF40063C4F8C03FD4F8C03FD4F8CC3F13F0010F11D0EB6923B12946204685
:402A4000FFF72EFD05E0AB681BB129462046FFF761FF0123C4F8C03FD4F8C03FD4F8003E13F0040F2ED0D4F88C3F13F4A0630AD02A681A432A60C4F8803FD4F8803F2B6BEE
:402A80000BB120209847D4F88C3F13F0010F08D029462046FFF796FC0123C4F8803FD4F8803FD4F88C3F13F4007F0BD00022C4F8882F2B6823F001032B60EA622B6B0BB1D2
:402AC0000220984738BD00BF00287DD00346002A7CD070B45068000280B29568AD0405F480252843D468240404F4403404431069000600F0E0602043147F0CB1012400E0A8
:402B0000002420430C1DA4011851D06828B903EB81100024C0F808410CE0012805D1146803EB8110C0F8084104E003EB81100124C0F80841106938B9546903EB8110C0F84C
:402B40000C419469C0F81041146803EB8110C0F81441906CB0F1FF3F17D0946A04F00F04166B360206F470663443956B2D0405F470252543146C2403A4B22C430001C0B22D
:402B8000204303EB8114C4F82001506A00F00300D66A360106F030063043556B2D0205F440752843D46BA401E4B20443506C800000F00C00204303EB8113C3F82401126A4D
:402BC000C3F83821002003E0024870470148704770BC70470100B60038B50D4640F4004000040E4BD8614FF47A7403E0013C0120FEF716FF094B1B6C13F0010F01D1002C71
:402C0000F4D144B1054B1A6C42F001021A64DB6A2B80002038BD024838BD00BF00003C400400160010B50F4B03EA004001430E4AD1614FF47A7403E0013C0120FEF7F0FE49
:402C4000094B1B6C13F0010F01D1002CF4D134B1054A136C43F001031364002010BD034810BD00BF0000FF7F00003C400400160070B582B005460A244FF4C05141F60260AD
:402C8000FFF7D0FF034630B90DF1060141F60260FFF7A2FF03460CB1013C00E0714B23B9BDF80620B2F5C05FE6D13BBB0DF1060141F60360FFF790FF0346F8B9BDF80620E6
:402CC00002F4806292B2CAB90A244FF4806141F60360FFF7A7FF034630B90DF1060141F60360FFF779FF03460CB1013C00E05D4B23B9BDF80620B2F5806FE6D133B90DF1B5
:402D0000060141F60960FFF767FF0346002B43D1BDF8063023F03F039BB2AA78012A12D1E978012904D88EB2C6F1020294B201E00024022643F07003ADF806304A4BCB4055
:402D40004A4A136012E0E97821B98EB2C6F1010294B201E00024012623F0400343F01003ADF80630424BCB40404A1360BDF80610314389B2ADF8061041F60960FFF752FF8B
:402D80000346EA78961B06F00306A20092B23243ADF8062037494A664FF0B052527812F0FF0F04D04FF0B0525278D2B200E02122212A53D0304A128892B2002A4ED033B9C7
:402DC0000DF1060141F60760FFF706FF034643BBBDF8063023F060039BB2ADF8063026490A88C2F3811243EA421323F428639AB2ADF806200B889BB2DB0103F4F063134385
:402E000023F4C0539BB2ADF806300988C1F3012143EAC121ADF8061041F60760FFF702FF034633B90DF1060141F60660FFF7D4FE03469BB9BDF8061021F0C0018BB2ADF8BF
:402E400006300D4A1188C1F3011143EA8111ADF8061041F60660FFF7E5FE0346184602B070BD00BF040016000048E801904202080024F40000F03D401618001638B50D4601
:402E800041F2010141EA400141F60860FFF7CAFE044630B946F6370141F60F60FFF7C2FE04466801FEF7BCFD204638BD024A136F43F010031367704700F03D4070B59CB032
:402EC000134C13AD26460FCE0FC50FCE0FC533682B600AAD04F124060FCE0FC50FCE0FC533682B6001AD48340FCC0FC50FCC0FC523682B6013A90748FDF7B2FF0AA9064812
:402F0000FDF7AEFF01A90548FDF7AAFF1CB070BDEC730810000132408001324000023240F8B5002800F0E7800546774B5B6813F4003F01D0FFF77CF8744C03E0013C012094
:402F4000FEF76EFD724BDB6E0BB1002CF6D1704BD3F8A03013F0010F06D06D4BD3F8B43013F0010F40F0C980694BDB6E002B40F0C680FFF7A3FF674901F5F833664AC3F898
:402F8000A4202A7842F42022C3F8A8204FF00112C3F8AC20D1F8003113F0010F40F0B1805B4B1B6F13F0080F0AD15C4B1B685C4A934207D95B4AA2FB03231B0D013B02E011
:402FC000012300E00023534A12681BB1564941EA433300E0554B13434E4A13604A4B5B6913F0804F13D001210320FEF7DFFE464B5B69C3F380734E4A126892F844206AB168
:4030000063B1414A936943F08043936106E0404AD2F8C43043F00303C2F8C4303C4CD4F8A07047F4403343F03003C4F8A0304020FEF7F6FCD4F8B03013F0010F0BD10123EC
:40304000C4F8B0304020FEF7EBFC0323C4F8B0304020FEF7E5FC27F4803727F0100747F4003646F020062A4BC3F8A0604FF4FA6403E0013C0120FEF7D3FC44F210032D4A1D
:40308000D35813F0100F01D1002CF2D10CB1002400E0294C1CBB1E4A936E43F0080393660120FEF757FE18B947F4003646F0280626F4802343F00103154AC2F8A030134E06
:4030C00003E0013E0120FEF7ABFC114BD3F8B43013F0010F01D1002EF3D106B9164C1CB92846FFF7C5FD044664B929786878FFF7C5FE044606E0114C04E0114C02E0104C46
:4031000000E0104C2046F8BD00002640F07E0E0000F03D4000003C40060000019842020800093D0083DE1B43041A0080040A0080CC87020800003240040016000100160051
:403140000300160002001600014B1868704700BF9042020810B5002405E02046FEF7C4FA032804D00134042CF7D9002010BD012010BD00BF074BD3F8003503F00303012BD4
:4031800003D0032B03D101207047012070470020704700BF0000264038B5012902D0082942D047E0284B1B78012B45D00320FEF7A9F8264B984241D0FFF7CCFF01283FD0E6
:4031C000022005F051FD0546FEF7ABFC204B186027F006F90446062815D0022D09D1022013F0B4FE032C01D0052C0ED178B1194C12E0012013F0AAFE022C0AD058B9FEF7E3
:40320000CDFE144C08E0002406E0124C04E0002402E0104C00E00F4C0E4B9C4211D10C4B1868FEF782FC0CE0094B1868FEF77DFC002406E0074C04E0064C02E0054C00E05B
:40324000044C204638BD00BFD487020801018800A8780208FF00420008B50248FEF706FE08BD00BFB0420208B0B110B50B4A5060C36A03B193600024094B1C70094B1C7027
:40328000094B1C60094B1C7000F09CFB084B1C70084B1C70204610BD07487047A8780208E8870208EC870208F0870208ED870208D3870208D88702080100160070B59AB06E
:4032C0003F4D15AC28686968AA68EB680FC4286920604C22002102A803F03AF8394B029315AB049342F61013ADF8143005238DF81630354B5B681B69069341F2960307930C
:403300001B23ADF82030ADF8223003238DF8243004238DF8253006238DF8263010238DF827308DF828308DF829307223ADF84C3001238DF850302548FEF76AFD05F08DFC6F
:4033400008A805F0F5FC0346002836D1204B03931D4B5B68996B89B10B460DF12A0220311E685D689C68D868166055609460D060103310328B42F3D11B88138002A805F040
:403380007FFC0346B0B90122124B1A700023124A1370124A13700C4B5B681A6A00929B6ADB88ADF804300A23ADF8063068460DF0F7FC034600210A4A116018461AB070BD5A
:4033C00058740810913D0810A8780208B0420208844D0208D4870208DC870208DD870208F0870208014B9867704700BF00F03D4008B51AF0EFFC034B1B680BB100B1984744
:4034000008BD00BFB478020848B108B5B1F5FD7F07D20A46044902F090FF002008BD03487047024808BD00BF07080016010016002DE9F04FADF5077DB1F1805F03D38D189B
:403440009D4CA54210D9B1F1A05F03D38D189B4CA54209D99A4CA14240F20F818D1804F20124A54200F20E81049317460E468046944B5B6913F0804F10D0924B5C6904F01B
:403480000704022C24D10520FEF772FE00908E4B9842F8D002940123039323E04FF61C73884AD35803F01F034FF0B05292F84027D2B2D31A18BF012303937BB90120FEF792
:4034C000A3FE814B9842F9D000900523029309E00294012303930023009303E00523029300230093794B009A9A4204D140F2D5117748FEF7A1FA06F17046730A01935C0298
:4035000000210320FDF776FE0028F9D10546824683E0B44213D3BD4211D218F805200DF1180E0EF8032041B904F180521278D2B218F805E0724500D00121013506E004F1B9
:40354000805212780DF1180E0EF803200134013301E000210B46B3F5007FDAD3002959D0009B002B56D1049B002B48D14FF0C80B05955D46DDF804B00BF500294FEA492944
:403580004846FDF7C3FB8246013D0120FEF748FA0AF4A403B3F5A40F01D1002DECD1059D4C4B9A4505D1FDF7ADFB4B4B9842FAD08246BAF1000F17D14FF0C80B5B46A346E7
:4035C0001C4606A94846FDF7F3FB8246013C0120FEF726FA0AF4A403B3F5A40F03D1002CEFD15C4600E05C463A4B9A4511D1FDF789FB394B9842FAD0824601200AE0019BD6
:4036000003F5002006A94002FDF72EFB8246012000E00120019B01330193009B23B9BAF1000F01D1BD4294D308B1FEF713FA00210320FDF723FE0028F9D1009B33BB214BB2
:403640005B6913F0804F09D0029B022B06D10220FEF78EFD00901C4B9842F8D0194B1B6813F4000F12D1039B83B90020FEF7CCFD0090154B9842F8D008E000230093DFF860
:403680006CA003E000230093DFF860A0009B63B9124B9A450BD004339A4508D0BAF1000F01D1002004E00E4802E00E4800E00E480DF5077DBDE8F08F000010100080001420
:4036C000FF0700160000264004004200030042006C7508100100500002005000020052001300160012001600010016000600520048B108B5B1F5FD7F07D20A46012304499B
:40370000FFF796FE08BD03487047024808BD00BF070800160100160070B5C0B006460C4615464FF480720849684602F006FE05E016F8012B6A401DF80250013C002CF7D115
:40374000284640B070BD00BF6C74081008B50022FFF7E2FF08BD00BF002070470288AE2303FB02F3A3F26F33024AA2FB0323DB080B807047CDCCCCCCB0F9002042F64B03BD
:4037800003FB02F3044A82FB0302DB17C3EB2233C3F1BD030B807047AD8BDB680020704708B513F003FA08BD08B5FEF739F908BD084B1B685B6BB3F90030002B08DB590936
:4037C00003F01F03012202FA03F3034A42F82130704700BFAC78020800E100E00A4B1B685B6BB3F90030002B0DDB5A0903F01F03012101FA03F32032044941F82230BFF36E
:403800004F8FBFF36F8F7047AC78020800E100E0024BD3F8000500F00300704700002640024BD3F81C05C00F704700BF0000264008B5FEF72FF808BD70B504460D46164687
:403840000320FDF75FFD054B984205D0324629462046FDF76DFF70BD014870BD0101880003004A00431A002BB8BF5B4293422BD310B4194BD3F83C35C3F30903884207D970
:40388000411A01EB5201B1FBF2F29A1A0FD50AE0091A01EB5201B1FBF2F21A4440F2FE318A4202D803E0002201E040F2FF320A4CD4F83C1521F47F7121F00301C2F3090071
:4038C0000143C4F83C1502E00023D81A7047981A5DF8044B704700BF0000264008B5034B1A684FF40041FFF7BDFF08BDC842020810B5FFF7E3FA0220FFF774FD0A4C2368F9
:403900000A49586BFEF73AF823685B6BB3F90030002B08DB590903F01F03012202FA03F3034A42F8213010BDAC780208F133081000E100E00420704708B5FEF7F2F808BD77
:4039400008B5FEF7F2F808BD08B5FEF727FB08BD08B50021FEF72AFA08BD00BF704700BF704700BF002070470048704711001600004870471100160000487047110016009D
:4039800000487047110016000048704711001600004870471100160000487047110016000048704711001600004870471100160000487047110016000048704711001600D7
:4039C000704700BF08B5024800F07AFD08BD00BF30440208F8B5022872D8002972D10022134606E03B4CE45C012C01D90132D2B20133002BF6D0012A0CD1374B1B681C68B8
:403A000001EB8102930023445B681B79023BDBB2012B59D8314B1B78002B57D1304B1970E0B92D4F3C68236801EB8105AA009D186668C1EBC1014B001E44B18829822168CE
:403A4000114449686468E45A0C8039680C682244526849680B445B8853801EE001281CD11D4F3C68236801EB8105AA009D186668C1EBC1014B001E44B18929822168114493
:403A80004D68616819440989298039680C682244526849680B445B895380124B18700E4B1B6818680E4B1B7803EB83039A00104408F006FF034650B90121084A117006E04B
:403AC000094B04E0084B02E0084B00E0084B1846F8BD00BFDC870208AC780208DD870208D2870208ED8702080100160002001600FF00160070B439B9144B1B681B68996857
:403B0000CE7F00231D460EE0104B1B681B68D968CE7FF6E7CA5C52B10133CC5C1B2C01D0134400E00125B34201D2002DF2D05DB101338279CA54002204E0D4180134855CE4
:403B40000D550132052AF8D970BC7047AC78020870B504460DF03EF9054620BB134B1968086A228902EB82029300143B03445A6812F0007F17D0E67B1B695A68CB69D21A4F
:403B8000C6EBC606B318A28821680948184402F0D4FBE37B074AD35C012B04D1064A137843F002031370284670BD00BFAC780208E0870208D8870208D387020830B587B045
:403BC00002891A4B1B685B699B889A4229D1044601AB07C883E807000022ADF81020A289ADF8122040228DF814201846FFF7B0FF054680B923681B7803F002039BB22BB184
:403C00000B4B1B6821460B48984704E0084B1B68214609489847094A137803F0FE03137000E00025284607B030BD00BFAC780208B07802080500010006000100E8870208B0
:403C40004288531E9BB2172B1AD84178D1B910B40F4B1868046A02EB82029300143B23445A6812F0007F0FD01B695A68C369D31AC1EBC1011944074B5B5A1380002004E095
:403C8000012070470120704700205DF8044B7047AC780208E087020800B583B00023ADF804308389ADF800300389ADF8023012238DF80430084B1B7813F0010F09D129B177
:403CC0008DF8051068460CF0A1F902E0C0680CF0CBF903B05DF804FBE887020810B4044688B10023194606E0104A52F82320944200D1012101330D4A1279934206D2002951
:403D0000F2D0002003E00021094800E0002050B949B9064B1B792BB9044A42F823400133137100E003485DF8044B7047F4870208010016000300160070B506460D460020B6
:403D4000044606E0084B53F824302946304698470134054B1B799C4204D2044B1B7813F0010FEFD170BD00BFF4870208E887020883792BB100207047C25C32B9013300E025
:403D80000023052BF8D9002070470120704700BF70B58CB004460D46BF4A137843F00103137044F20803984200F04C823CD842F20403984200F0F08019D841F202039842C0
:403DC00000F0178108D8B0F5805F79D041F20103984200F00B8159E341F20303984200F0418141F20403984200F04B834EE343F2190398425BD00AD843F20103984200F0C2
:403E0000BC8043F21203984200F0B7803EE344F20603984200F01A8200F2CD8144F20403984200F0328131E345F20C03984200F0DF821BD845F20103984200F046820AD814
:403E400044F20A03984200F0B38144F21003984200F0B1811AE345F20203984200F0838245F20303984200F0B9820FE345F21003984200F0F8820AD845F20E03984200F0FE
:403E8000EC8245F20F03984200F0EA82FEE245F21703984200F0ED8246F20103984200F0118245F21403984240F0F082DEE2084605F082F8784A137803F0FE031370E5E240
:403EC000764B1E683046FFF753FF60B1304609F0E5FC724E00213068FFF70CFE01213068FFF708FE37E06E4B1A68936A1B791BB34FF0B05191F8043603F03F0391F80506B0
:403F000000F03F0043EA801391F8030600F01F0043EA003391F8001601F07F0143EA4143126B13705E4A1168096BC3F3072048701268126B1B0C9370594E3368186B09F0C7
:403F4000ADFC33680021186BFFF7D4FD33680121186BFFF7CFFD524B1B68986A02300AF0B3F8504A05AB1068516803C305A809F0B9FC02224C4B1A7088E200234A4A137012
:403F80004A4A13704A4A137043F212039C4240F07D82FFF761F979E2464B1B6813F0010F40F074820023ADF814308DF816303C4E33689B6A93F900308DF8143005A809F058
:403FC000ABFC33689B6A93F901308DF8143001238DF81530FF238DF8163005A809F09CFC344A136843F0010313604FE2FFF7A4FE4CE24978304B1B88ADF81430002319E05D
:404000002E4A32F81320ADF808209DF8092012B92B48825C00E00022012A0AD9274A12F81320914205D1254A32F81330ADF8143002E00133002BE3D09DF81530FF2B05D10A
:4040400004D140F2CA311F48FDF7F6FCBDF81430ADF82030ADF81C30C3F3072329781A4AD15413E20B78002B40F010820B7A33B9164B0022DA809A80154A1A604B60064A67
:40408000137803F0FE03137000E249790A4B1B88ADF81430002337E0E8870208CC420208AC780208A8750810D4870208DD870208CC780208F0870208B0750810D08702080B
:4040C000DC870208B4750810EC870208D478020894760208B04A32F81320ADF80C209DF80D2012B9AD48825C00E00022012A0AD9A94A12F81320914205D1A74A32F813305C
:40410000ADF8143002E00133002BE3D09DF81530FF2B05D104D140F2CA31A148FDF78CFCBDF81430ADF82430ADF81430C3F3072369789C4AD154EB78002B40F0A7816979F2
:40414000994B1B88ADF81430002319E0924A32F81320ADF810209DF8112012B98F48825C00E00022012A0AD98B4A12F81320914205D1894A32F81330ADF8143002E0013355
:40418000002BE3D09DF81530FF2B05D104D140F2CA318348FDF750FCBDF81430ADF82830ADF81430C3F307230121804AD1546DE1FFF7C2FD6AE1AB7E002B3FD12B7E012BE3
:4041C00002D100227A4B1A70E97E774B1B88ADF81030002319E0704A32F81320ADF814209DF8152012B96D48825C00E00022012A0AD9694A12F81320914205D1664A32F813
:404200001330ADF8103002E00133002BE3D09DF81130FF2B05D104D140F2CA316048FDF70BFCBDF81030ADF82C30ADF81030C3F30723FF2B02D0297E5E4AD15402225E4BEF
:404240001A7023E102225C4B1A701FE1FFF774FD5A4B1B7813F0010F00F01881544B1B78012B03D10222524B1A700FE1032B03D100224F4B1A7009E1022B40F0078100227A
:404280004B4B1A704E4B1B685B684E4A1178C1EBC10203EB42039A79002A00F0F7809B88002B00F0F380484B1B78002B40F0EE800120FFF78FFB002840F0E88001223C4BED
:4042C0001A70E3E0FFF738FDE0E00B88ADF800309DF801301BB90221304AD15405E023B940F286312E48FDF7A7FB6A7829882A4B23F812106B780021344AD154C3EBC302AD
:40430000334E91192E4B1B6818692B78C3EBC30303F584531033034453F8060F90519A889B798A808B716878C0EBC00006213044FFF70CFA6B78C3EBC30333449B7998424A
:404340000CD0244B1B680021234898476B78C3EBC303981900229A51C0F8032029462046FFF7EAFC92E00B88ADF804309DF805301BB90021094AD15405E023B940F28631A4
:404380000748FDF759FB6B780021084AD15429462046FFF7D1FC79E0D0870208DC870208B4750810D8870208B0750810CC780208DD870208D0780208D4870208E887020859
:4043C000AC780208D2870208ED870208EC870208E0870208B0780208040001000B88ADF814301723ADF8163005A80BF01BFE4DE00846FFF7E3FB014620B929462046FFF7ED
:404400009BFC01462846FFF747FC294B1B7813F0110F04D0274B1B682946204698472A89234B1B7813F0010F11D0531E9BB2172B0DD912238DF81830ADF81620AB89ADF80C
:40444000143001238DF8193005A80BF0DFFD184A137803F0FE03137018E0FFF76DFC15E0FFF76AFC12E0FFF767FC0FE0FFF764FC0CE00846FFF7E4FB29462046FFF75CFCB4
:4044800004E00D4A137843F001031370084B1B7813F0110F09D0064A137803F0FE031370044B1B682946204698470CB070BD00BFE8870208B0780208D38702080020704734
:4044C00030B108B5034A10600348FFF707FC08BD02487047E0780208BD4408100100160008B502490248FEF77BFA08BDFC8702080000624008B5114B1B785BB9104A1149A1
:404500001148FEF749F811491148FDF737FA01220A4B1A700E4BB3F90030002B08DB590903F01F03012202FA03F30A4A42F82130054A136843F00043136008BDE478020886
:40454000FC870208EC75081000006240E1440810DC6E081000E100E008B518B1094AD062002000E0084858B9084B1B782BB90548FEF77AFE0122054B1A7008B9FEF79EFEF4
:4045800008BD00BFD042020801001600E578020808B5074B1B7833B900F0FCF800F046F90122034B1A7000F03DF800F0B9FB08BD1079020810B5FFF7EBFF044610B900F078
:4045C00021FB044614B900F0ADFA044600F05CFA0028FBD100F034F900F07CF9204610BD70B50E4D0026344614E0630904330C4A52F8233004F01F02D34013F0010F07D0FC
:40460000284600F047F806462946204600F090F81C350134002CE8D0304670BD9C7808103488020870B500230AE0124A191D02EB8100002444604FF0FF3042F8210001334E
:40464000002BF2D00C4C01230FE06668A27E094B2B4400211976012A05D1206918B1228BF17901F075FE1C342B465D1E002BECD170BD00BF348802089C78081030B40B883A
:404680004A889C1A0025CD800079844200DDCC8030BC70472DE9F84307468468466890F81A900025A8460BE04A462146304600F027F9804621463046FFF7E0FF0A34013524
:4046C0003B8B9D42F0D34046BDE8F883F0B50C8B8D684F680A69012324E010EA030403D17E88B979314402E07988BE79891BEE88B14201D3002100E01946A14202D0167809
:40470000013E1670A14201D014783CB920EA0300084309B9F97900E0012111705B000A350132744604F1FF3E002CD6D1F0BD00BF38B504468A7E154B03441D7E012A04D1F7
:404740002846FFF7C3FF054604E040F226411048FDF772F90D4B23441D76620904F01F04012303FA04F445B90432084B03EB8202536823EA0404546038BD0432034B03EBC3
:40478000820253681C43546038BD00BF3488020868780810F8B5194D3C220021284601F0D7FD4DF288232B804FF410636B8041F66A03AB8008236B8301232B77104C04F13B
:4047C000200607CEC5F81E00C5F82210C5F8262032886A85214604340CE0A268238B04E011F8013B53720A320346581E002BF7D11C342B465D1E002BEFD1F8BD3488020887
:4048000098780810034660B900F01F00012202FA00F05B090433044A02EB83035B68184070470020704700BF348802080023024AD380024A136070473488020818790208AD
:40484000704700BFC9B2062902D083180021197130F8121000EB42035980024400231372704700BF70B506460D46012305E0224629463046FFF7E6FF23465C1E002BF6D17F
:4048800070BD00BF70B5084DC3001A1A940022462C44A66801EB81014C002A44917E3019FFF7E0FF70BD00BF9C78081038B50546C0EBC0029300064A13441B8B04E02146E4
:4048C0002846FFF7DFFF23465C1E002BF7D138BD9C78081010B5012303E02046FFF7E6FF23465C1E002BF8D110BD00BF00FA03F3C2F5807001FB00F102FB0310000A7047BA
:404900002DE9F04106460D461746012342E035F8140005EB44035988884207D3431A2A194FF0000E82F808E0012201E00B1A002292B996F805E073450ED92B191B7A327A75
:40494000934205D3224639462846FFF77BFF20E02A19013313721CE096F804E0734504D996F805E0734514D89AB9FBB2062B10D005EB040898F804E0082301224EEA012186
:40498000FFF7B4FFC0F30F2205EB44035A8088F8040023465C1E002BB9D10020BDE8F08130B49F280ED940F2FE3399420AD9244CA1FB04454B1B05EB53035B0AC3EB83239A
:4049C00099422FD09F280DD9B1F5FF7F0AD91D4CA1FB04454B1B05EB53031B0AC3EB4323994221D09F280CD97E290AD9164CA1FB04454B1B05EB53039B09C3EBC3139942FE
:404A000014D09F2814D93E2914D9104CA1FB04454B1B05EB53035B09C3EB831399420BD000200AE0042008E0032006E0022004E0002002E0002000E0012030BC704700BF95
:404A4000051040002140800011080402054110044A1E032A01D8102300E0002379B183B1642202FB03F3B3FBF0F3002001E001305B00092BFBD90A2B04D9013802E0002099
:404A800000E00020C0B27047024BD86800F08000704700BF34880208034B0340034AD0681843D060704700BF8000010034880208034B0340034AD06820EA0300D06070472C
:404AC000800001003488020810B50E4BDB6813F4803F0DD170B9430904330A4A52F8233000F01F02D34013F0010F05D1012404E0112402E0012400E000240CB900F046FD7F
:404B0000204610BD3488020808B5054BDB6813F4803F03D100F086FC002008BD112008BD348802080F4BDB6813F0800F14D110B500244FF0FF330CE02046FFF7C5FF0346BC
:404B400030B90022084B1A70FFF7DEFF034606E00134002CF0D002E0112318467047184610BD00BF348802081C79020830B583B00025074C08E02179002300930E22206830
:404B8000FCF7DCF908340135002DF4D003B030BDC8780810704700BF10B50146124BB3F90030002B0DDB5A0903F01F03012404FA03F320320D4840F82230BFF34F8FBFF300
:404BC0006F8F094C2046FCF7D9FEB4F90030002B08DB590903F01F03012202FA03F3034A42F8213010BD00BFD46E081000E100E008B5034600B1012018B91846552100F0CF
:404C00008FFD08BD38B50024254604E02046FFF7EFFF05430134002CF8D0284638BD00BF70B5002514E0C5EBC50293000A4AD658002404E006EBC40000F040FC0134C5EB4E
:404C4000C5029300044A13441B7E9C42F2D30135002DE8D070BD00BF9C780810C0EBC0008300024A13445B68588970479C780810C0EBC0008300024A13445B6859817047C9
:404C80009C780810C0EB0032012303FA01F101398A4205D9C0EB0020814203D30520704706207047002070472DE9F04180460E46FFF7D4FF07460022318800F0F3FA01468A
:404CC0003846FFF76DFE054620B931887800FFF7D9FF054629463846FFF7BAFE04466B1FDBB2012B03D839464046FFF7C1FF2001C0B228433073BDE8F08100BF10B500244A
:404D000009E0C4EBC4029300044A134459682046FFF7CAFF0134002CF3D010BD9C78081008B5FFF7EBFFFFF721FF00F0F3F9002008BD00BF38B5114D2A689369104CE31A75
:404D4000DB0951691B01CA5822F4F852CA50022363602B6893F87D20135923F0F00343F0600313510120FCF75BFE2B6893F87D20135923F0F003135138BD00BFCC870208BF
:404D8000800332400F4B1B78C3EBC3039A000E4B1A4453680D4AD2F8D02091B2188801238340013B994206D2094B1B680949097823F811207047064A12680649097822F866
:404DC000113070471E7902089C7808100000364070880208D078081038B5234A1378234CC3EBC3039900214448681378C3EBC3039A002244127E013A1D4B1B78DBB29A4272
:404E00001CD91B4C23780133DBB22370164D2B78C3EBC3039A00154B1A449168237803EB83035A000A44134B1A6000F013FA2878217800F031FB00F077FA38BD00220C4BAC
:404E40001A704FF48030FFF733FE0B4B1B78012B02D1FFF79FFE38BD8020FFF729FE074A13890133138138BD1E7902089C7808101D790208708802081C79020834880208E3
:404E800008B5074B4FF483721A601B68FFF77AFF044A1389013313810348FFF709FE08BDF0003640348802088000010010B50C4B1B78C3EBC3039A000A4B9B580A4A1478EE
:404EC00003EBC404094B4FF483721A601B68FFF759FF204600F0F2FAFFF77EFF10BD00BF1E7902089C7808101D790208F000364001390843014B1860704700BF00023640DA
:404F00000E4B1B6823F4F8730D4A117F0D4AB2FBF1F20D498A4204D843F02003074A136070470A498A4204D843F03003034A1360704743F04003014A136070473444020831
:404F40003488020880F0FA02001BB70000366E01044A054B1A604FF0C17203F580731A60704700BF0000830100043640084A136803F07F0343F0C17343F48033136002F528
:404F80008072136803F07F0343F400031360704700043640074A136843F0805343F001031360054A054B1A604FF0C17203F580731A607047A80236400000830100043640F0
:404FC00010B40488012000FA04F4013C04EB840303FA00F00C4BA3FB00035B0901335818844200D220468B4201D8C91A00E00021914203D8904203D2062002E0062000E0C3
:4050000000205DF8044B70471F85EB510023154A1360154902F5927211600432136006212C3A1160012211490A6090390A60104A4FF48371116012680E4A136003220E4BD0
:405040001A604FF4FA6300E0013B094A126812F0040F01D1002BF7D113B90822064B1A60704700BF8C0136400101010080023640F0003640F8003640400336401E4B4FF4E5
:4050800083721A601B681D4BB3F90030002B08DB590903F01F03012202FA03F3184A42F821300023174A136030321360043213602C3A13605021983A11600121643A116000
:4050C0000C3A13608032136843F08073136002220D4B1A604FF4FA6300E0013B0B4AD2F8842012F0070F01D0002BF6D140F20132074B1A60704700BFF0003640D46E08107A
:4051000000E100E080023640F8003640000036404003364070B5FFF783FDFFF70BFE4FF480323F4B1A603F48036843F0805343F00103036000233C4A136002F5E07213601C
:405140000C32136060321360A2F5CE72136002F582721360083A1360344C2360A2F5807213604FF0487102F5A8721160304D2A6892F87D602F4AB15821F0F001B150296817
:405180008D69521BD2094D691201A95821F4F85141F48061A95028490A6842F480520A600121264A1160026842F080520A4302604FF0807222490A6040F64130A1F58E71C3
:4051C000086001F584710B602260FFF7C1FE1D4B1B7F013BFF2B0CD8154A11688868B1F874200244516821F47F411B029BB20B435360FFF785FE144B1B6843F0004343F422
:405200008053124A13600F22114B1A600022A3F588731A600A2203F590731A6070BD00BF04023640A8023640F400364084023640CC8702088003324094023640A002364091
:40524000A40236403488020834440208000036400003364038B50546FCF763FC0D490B6823F07F020C4B1C7825446B7A13430B60FCF75BFCFCF755FC08490B6823F07F0214
:40528000074B1B681C44637A13430B60FCF74DFC38BD00BF00043640D0780810000536407088020830B401248C40631E40B10F2904D9A4F10A03B3FBF0F301E0B3FBF0F3D3
:4052C000053A012A00D85B080BB9012000E0184630BC704708B50C4B1B78C3EBC3039A000A4B1A44536859891B7B18045A1F012A01D840F00070053B012B02D8490800D107
:405300000121FFF7F5FD08BD1E7902089C78081008B5027B01884089FFF7C4FF80B2014B186008BD1403364008B50D4BB3F90030002B0DDB5A0903F01F03012101FA03F3B5
:405340002032084941F82230BFF34F8FBFF36F8F0122054B1A60FFF759FEFFF78FFE08BDD46E081000E100E08001364008B50448FFF792FB1720FCF753FBFFF7D5FF08BD98
:4053800080000100F8B50546FCF7CBFB06462F682C79072C04D94FF471712048FCF74CFBA4001F4B1B6893F87D00C2590F23A34022EA0301062202FA04F30B43C3512C6872
:4053C0002D79072D04D94FF422711448FCF734FB134B1A689369E31ADB0952691B01D118032D0BD8D158ED001F20A84021EA00000B2101FA05F50543D5500BE0043D4B685D
:40540000ED001F22AA4023EA02020B2303FA05F515434D603046FCF788FBF8BDD4780810CC87020870B5164E3378164CC3EBC3039A0022445068144D00232B703378C3EB7D
:40544000C3039A00224491682B7803EB83035A000A440E4B1A60FFF7FDFE3378C3EBC3039A00A358287803EBC000094B1860FFF789FF0848FFF790FBFFF778FF70BD00BF74
:405480001E7902089C7808101D7902087088020874880208AD4E081008B5C0EBC0008300044AD05800EBC100034B1860FFF76AFF08BD00BF9C78081074880208F8B50646C3
:4054C000FCF72FFB074634683579072D04D94FF422712348FCF7B0FA224B1A689369E31ADB0952691B01D118032D08D8D158ED001F2000FA05F521EA0505D55008E0043DC1
:405500004B68ED001F2202FA05F523EA05054D6035683479072C04D94FF471711048FCF78BFAA4000F4B1B6893F87D0042590F23A34022EA03010E2202FA04F30B43435133
:4055400035683479072C04D940F281310448FCF773FA0123A3406B603846FCF7E6FAF8BDD4780810CC87020808B5064B1B78012B06D1054B1868FFF7A1FF0022014B1A70A6
:4055800008BD00BF1F7902087488020870B5104DC0EBC00293002B445C68C0B20D4E3070FFF7E2FF3378C3EBC3039A00AA580A4B1A600A4BDA6822F07F02DA603178DA68ED
:4055C0000A43DA602046FFF7A3FEFFF783FE70BD9C7808101E790208748802083488020838B5C3001A1A9300104A13445D68C9B20F4C21709968237803EB83035A000A44DE
:405600000C4B1A60FFF7C2FF2846FFF723FE2078094A136803EBC0001060FFF7B3FE0122064B1A700648FFF7B7FA38BD9C7808101D79020870880208748802081F790208D4
:40564000814E08102DE9F84307460D4690462D490B78C3EBC3039A002B4B1A4456684FF0000985F800900878284B1978FFF7B8FFFFF77CFC8024B94503D22B7823EA0403C1
:405680002B7064082B7823432B703046FFF7E2FDFFF76CFE4CF6C44300E0013B1C4AD26812F0800F01D0002BF7D11A4B1B68B3F80090002CDFD1134B1B78C3EBC3039A003C
:4056C000114B9B58114A107803EBC000124B1860FFF7F4FE0022114B1A70FFF75BFC4A4639463046FFF76CFC98F800202B789A4201D288F80030074B1B682A785A72BDE83B
:40570000F88300BF1E7902089C7808101D7902083488020870880208748802081F7902082DE9F04383B004460F46C0EBC0023A4B03EB82035E6801238DF80430B14639F807
:40574000098B03FA08F303F1FF3801FB08F3334AA2FB03384FEA5818C2B2314B1A703148FFF71AFA0025304B1D700AE001AA49464046FFF767FF05432B4A13780133DBB244
:405780001370C4EBC403244A02EB8303DA7E264B1B78DBB29A42E9D89DF8043001335B0873720022204B1A7024E0C4EBC4031A4A02EB83039A681C4B1B7803EB830302EB7F
:4057C00043021A4B1A60537A717A8B420BD35B1ADBB207FB03F363331049A1FB0313C3F34713537201E0002353720F4A13780133DBB21370C4EBC403074A02EB8303DA7E2F
:40580000094B1B78DBB29A42CFD80022064B1A70284603B0BDE8F0839C7808101F85EB511E790208814E08101D7902087088020881F0004102E000BF83F0004330B54FEADE
:4058400041044FEA430594EA050F08BF90EA020F1FBF54EA000C55EA020C7FEA645C7FEA655C00F0E2804FEA5454D4EB5555B8BF6D420CDD2C4480EA020281EA030382EA50
:40588000000083EA010180EA020281EA0303362D88BF30BD11F0004F4FEA01314FF4801C4CEA113102D0404261EB410113F0004F4FEA03334CEA133302D0524263EB4303D8
:4058C00094EA050F00F0A780A4F10104D5F1200E0DDB02FA0EFC22FA05F2801841F1000103FA0EF2801843FA05F359410EE0A5F120050EF1200E012A03FA0EFC28BF4CF016
:40590000020C43FA05F3C01851EBE37101F0004507D54FF0000EDCF1000C7EEB00006EEB0101B1F5801F1BD3B1F5001F0CD349085FEA30004FEA3C0C04F101044FEA4452D5
:4059400012F5800F80F09A80BCF1004F08BF5FEA500C50F1000041EB045141EA050130BD5FEA4C0C404141EB010111F4801FA4F10104E9D191F0000F04BF01460020B1FA12
:4059800081F308BF2033A3F10B03B3F120020CDA0C3208DD02F1140CC2F10C0201FA0CF021FA02F10CE002F11402D8BFC2F1200C01FA02F120FA0CFCDCBF41EA0C019040F1
:4059C000E41AA2BF01EB0451294330BD6FEA04041F3C1CDA0C340EDC04F11404C4F1200220FA04F001FA02F340EA030021FA04F345EA030130BDC4F10C04C4F1200220FADB
:405A000002F001FA04F340EA0300294630BD21FA04F0294630BD94F0000F83F4801306BF81F480110134013D4EE77FEA645C18BF7FEA655C29D094EA050F08BF90EA020F77
:405A400005D054EA000C04BF1946104630BD91EA030F1EBF0021002030BD5FEA545C05D14000494128BF41F0004130BD14F580043CBF01F5801130BD01F0004545F0FE4185
:405A800041F470014FF0000030BD7FEA645C1ABF194610467FEA655C1CBF0B46024650EA013406BF52EA033591EA030F41F4002130BD00BF90F0000F04BF0021704730B579
:405AC0004FF4806404F132044FF000054FF0000150E700BF90F0000F04BF0021704730B54FF4806404F1320410F0004548BF40424FF000013EE700BF42004FEAE2014FEAF0
:405B000031014FEA02701FBF12F07F4393F07F4F81F06051704792F0000F14BF93F07F4F704730B54FF4607401F0004521F0004120E700BF50EA010208BF704730B54FF027
:405B400000050AE050EA010208BF704730B511F0004502D5404261EB41014FF4806404F132045FEA915C3FF4DCAE4FF003025FEADC0C18BF03325FEADC0C18BF033202EB79
:405B8000DC02C2F1200300FA03FC20FA02F001FA03FE40EA0E0021FA02F11444C1E600BF70B54FF0FF0C4CF4E06C1CEA11541DBF1CEA135594EA0C0F95EA0C0F00F0DEF883
:405BC0002C4481EA030621EA4C5123EA4C5350EA013518BF52EA033541F4801143F4801338D0A0FB02CE4FF00005E1FB02E506F00042E0FB03E54FF00006E1FB03569CF0A7
:405C0000000F18BF4EF0010EA4F1FF04B6F5007F64F5407404D25FEA4E0E6D4146EB060642EAC62141EA55514FEAC52040EA5E504FEACE2EB4F1FD0C88BFBCF5E06F1ED802
:405C4000BEF1004F08BF5FEA500E50F1000041EB045170BD06F0004646EA010140EA020081EA0301B4EB5C04C2BFD4EB0C0541EA045170BD41F480114FF0000E013C00F380
:405C8000AB8014F1360FDEBF002001F0004170BDC4F10004203C35DA0C341BDC04F11404C4F1200500FA05F320FA04F001FA05F240EA020001F0004221F0004110EBD37030
:405CC00021FA04F642EB06015EEA430E08BF20EAD37070BDC4F10C04C4F1200500FA04F320FA05F001FA04F240EA020001F0004110EBD37041F100015EEA430E08BF20EAB8
:405D0000D37070BDC4F1200500FA05F24EEA020E20FA04F301FA05F243EA020321FA04F001F0004121FA04F220EA020000EBD3705EEA430E08BF20EAD37070BD94F0000FB2
:405D40000FD101F00046400041EB010111F4801F08BF013CF7D041EA060195F0000F18BF704703F00046520043EB030313F4801F08BF013DF7D043EA0603704794EA0C0F24
:405D80000CEA135518BF95EA0C0F0CD050EA410618BF52EA4306D1D181EA030101F000414FF0000070BD50EA410606BF1046194652EA430619D094EA0C0F02D150EA013666
:405DC00013D195EA0C0F05D152EA03361CBF104619460AD181EA030101F0004141F0FE4141F470014FF0000070BD41F0FE4141F4780170BD70B54FF0FF0C4CF4E06C1CEA00
:405E000011541DBF1CEA135594EA0C0F95EA0C0F00F0A7F8A4EB050481EA030E52EA03354FEA013100F088804FEA03334FF0805545EA131343EA12634FEA022245EA1115DA
:405E400045EA10654FEA00260EF000419D4208BF964244F1FD0404F5407402D25B084FEA3202B61A65EB03055B084FEA32024FF480104FF4002CB6EB020E75EB030E22BF9E
:405E8000B61A754640EA0C005B084FEA3202B6EB020E75EB030E22BFB61A754640EA5C005B084FEA3202B6EB020E75EB030E22BFB61A754640EA9C005B084FEA3202B6EBA8
:405EC000020E75EB030E22BFB61A754640EADC0055EA060E18D04FEA051545EA16754FEA06164FEAC30343EA52734FEAC2025FEA1C1CC0D111F4801F0BD141EA00014FF027
:405F000000004FF0004CB6E711F4801F04BF01430020B4F1FD0C88BFBCF5E06F3FF6AFAEB5EB030C04BFB6EB020C5FEA500C50F1000041EB045170BD0EF0004E4EEA11316C
:405F400014EB5C04C2BFD4EB0C0541EA045170BD41F480114FF0000E013C90E645EA060E8DE60CEA135594EA0C0F08BF95EA0C0F3FF43BAF94EA0C0F0AD150EA01347FF47D
:405F800034AF95EA0C0F7FF425AF104619462CE795EA0C0F06D152EA03353FF4FDAE1046194622E750EA410618BF52EA43067FF4C5AE50EA41047FF40DAF52EA43057FF46C
:405FC000EBAE12E74A0011D212F5001211D20DD56FF47873B3EB62520ED44FEAC12343F0004343EA505323FA02F070474FF00000704750EA013002D14FF0FF3070474FF0C1
:406000000000704753B94AB9002908BF00281CBF4FF0FF314FF0FF3000F07EB9ADF1080C6DE904CE00F006F8DDF804E0DDE9022304B070472DE9F0478C460E460446089D6A
:40604000002B50D18A4217466CD9B2FA82FEBEF1000F0BD0CEF1200420FA04F401FA0EF644EA060C02FA0EF700FA0EF44FEA1749220CBCFBF9F01FFA87F809FB10C642EA6B
:40608000064600FB08F3B34209D9F61900F1FF3280F02281B34240F21F8102383E44F61AA2B2B6FBF9F309FB136642EA064403FB08F8A04509D9E41903F1FF3280F00A812A
:4060C000A04540F20781023B3C44C8EB040443EA00400021002D62D024FA0EF400232C606B60BDE8F0878B4207D9002D55D0002185E841000846BDE8F087B3FA83F1002964
:4061000040F09080B34202D3824200F2F880841A66EB03060120B446002D40D085E81010BDE8F08712B90127B7FBF2F7B7FA87FEBEF1000F35D1F31B4FEA17481FFA87FC64
:406140000121B3FBF8F0220C08FB103642EA06460CFB00F3B34207D9F61900F1FF3202D2B34200F2CE801046F61AA2B2B6FBF8F308FB136642EA06440CFB03FCA44507D958
:40618000E41903F1FF3202D2A44500F2B5801346CCEB040443EA00409CE729462846BDE8F087CEF1200106FA0EF307FA0EF720FA01F94FEA1748CE4049EA0309B6FBF8FA55
:4061C0004FEA194408FB1A661FFA87FC44EA06430AFB0CF29A4200FA0EF40AD9DB190AF1FF3180F087809A4240F28480AAF1020A3B449B1A1FFA89F9B3FBF8F108FB1133B9
:4062000049EA034301FB0CF69E4207D9DB1901F1FF326BD29E4269D902393B449B1B41EA0A418EE7C1F1200E22FA0EF48B40234320FA0EF706FA01F44FEA134C26FA0EF657
:406240003C43B6FBFCF9270C0CFB19661FFA83F847EA064609FB08F7B74202FA01F200FA01FA08D9F61809F1FF3041D2B7423FD9A9F102091E44F61BA0B2B6FBFCF40CFB01
:40628000146640EA064704FB08F8B84507D9FF1804F1FF3028D2B84526D9023C1F4444EA0940C8EB0707A0FB02894F4544464E4614D329D065B3BAEB040367EB060707FA2B
:4062C0000EFECB40CF404EEA030385E888000021BDE8F0871346F8E61046E0E6B8EB020469EB03060138E5E70446D8E7114695E78146C0E78A467CE7023B3C4448E70846F3
:406300000AE702383E442FE7C245E7D33E46D1E72946BDE8F08700BF704700BF10B501390244904207D010F8013B11F8014FA342F7D0181B10BD002010BD10B5431E0A4445
:40634000914204D011F8014B03F8014FF8E710BD02440346934202D003F8011BFAE770470CB430B5164B0C1E9DB01D6804DA8B232B604FF0FF301EE04FF40273ADF814301F
:4063800014BF04F1FF332346049307934FF6FF7302900690ADF81630209A21AB02A92846019300F0C7F8431CBCBF8B232B6014B1029B00221A701DB0BDE8304002B0704731
:4063C0004447020810F8012B11F8013B012A28BF9A42F7D0D01A7047034613F8012B002AFBD1181A0138704710B5034642B111F8014B03F8014B013A002CF7D11A4400E097
:4064000010BD934202D003F8014BFAE710BD30B5141E05469BB0184604DA8B232B604FF0FF301DE04FF40273ADF80C3014BF04F1FF332346029305934FF6FF730091049160
:40644000ADF80E3002461E9B6946284600F072F8431CBCBF8B232B6014B1009B00221A701BB030BD07B5009313460A46014603480068FFF7CCFF03B05DF804FB444702089B
:406480002DE9F0478E689E4282460C46914698463ED88A8912F4906F3AD0256809696F1A6569022305EB450595FBF3F57B1C43449D4238BF1D4653050FD5294600F08AFB0E
:4064C000064698B13A462169FFF737FFA38923F4906343F08003A38113E02A4600F0D8FB064670B92169504600F026FB0C23CAF80030A38943F04003A3814FF0FF30BDE8FB
:40650000F087266165613E44ED1B2660A5604646464528BF464632464946206800F0F0FAA3689B1BA36023681E4426600020BDE8F08700002DE9F04F9DB0804603938B890A
:406540001C060D4616460DD50B695BB9402100F041FB2860286118B90C23C8F80030CDE040236B610023099320238DF82930DFF89CB130238DF82A3037463C4614F8013BF9
:406580001BB9B7EB060910D003E0252BF9D02746F3E74B46324629464046FFF771FF013000F0A780099B4B4409933B78002B00F0A08000234FF0FF320493079305920693D6
:4065C0008DF853301A930126052221784E4800F047FA671C049B38B14B4A801A06FA00F0184304903C46EFE7D90644BF20228DF853201A0744BF2B228DF8532022782A2A54
:4066000003D0079A00210A200BE0039A111D12680391002A10DA524243F00200079204900BE0274601343B78303B092B03D800FB02320121F5E701B107923B782E2B1ED1A0
:406640007B782A2B0AD1039B1A1D1B680392002BB8BF4FF0FF330237059310E000230593781C19460A24074601303A78303A092A03D804FB01210123F5E703B10591032222
:406680003978224800F0ECF940B14023CBEB000003FA00F0049B18430490013739781C488DF8281006227E1C00F0DAF988B1194B33B9039B073323F007030833039314E093
:4066C00003AB00932A46144B04A94046AFF3008007E003AB00932A460F4B04A9404600F093F8B0F1FF3F824603D0099B5344099342E7AB895B0601D4099801E04FF0FF30C1
:406700001DB0BDE8F08F00BF358908103B8908103F89081000000000816408102DE9F04791461F460A698B68DDF820809342B8BF1346C9F8003091F8432006460C4612B1D3
:406740000133C9F800302368990642BFD9F800300233C9F80030256815F0060510D104F1190A07E00123524639463046C04701301AD00135E368D9F800209B1A9D42F1DB80
:4067800094F843302268003318BF012392060FD5E1185A1C302081F84300224494F8451082F84310023303E04FF0FF30BDE8F08704F1430239463046C0470130F4D02268C0
:4067C000D9F80050E36802F00602042A08BF5D1B2269A3680CBF25EAE57500259342C4BF9B1AED184FF000091A344D4509D00123224639463046C0470130D5D009F1010962
:40680000F3E70020BDE8F0872DE9F04317460A7E85B06E2A984606460C460C9B01F1430E00F0AE8011D8632A22D009D8002A00F0BB80582A40F0CA8081F84520834955E04A
:40684000642A1ED0692A1CD0C0E0732A00F0B08009D86F2A2ED0702A40F0B8800A6842F020020A603EE0752A24D0782A3AD0ADE01A6801F14205111D1960136884F8423061
:40688000A8E021681A6811F0800F02D0111D196008E011F0400F02F10401196002D0B2F9003000E01368002B3CDA2D225B4284F8432037E021681A6811F0800F02D0111DCD
:4068C000196007E011F0400F02F10401196001D0138800E01368227E5C496F2A14BF0A2208221BE078225A4984F845202268186812F0800F00F104051D6003D1550601D579
:40690000038800E00368D00744BF42F0200222601BB9226822F0200222601022002084F8430001E049490A226568A560002D08DB206820F0040020602BB9002D7DD17546F5
:406940000CE0002B79D07546B3FBF2F002FB1033CB5C05F8013D03460028F5D1082A0BD12368DA0708D5236962689A42DEBF302305F8013C05F1FF35C5EB0E0323612EE063
:4069800008681A68496910F0800F03D0101D1860136808E010F0400F02F104001860136801D0198000E0196000232361754616E01A68111D1960156862680021284600F086
:4069C0004FF808B1401B6060636804E004F1420584F8422001232361002384F84330CDF800803B4603AA21463046FFF797FE013002D14FF0FF3026E023692A4639463046B5
:406A0000C0470130F5D023689B0710D5002504F1190907E001234A4639463046C0470130E7D00135E368039A9B1A9D42F2DBE068039B9842B8BF184605E00B7884F8423022
:406A400004F142058AE705B0BDE8F083468908105789081000000000000000000000000001F0FF01102A2BDB10F0070F08D010F8013B013A8B422DD010F0070F42B3F6D183
:406A8000F0B441EA012141EA014122F007047FF000070023F0E80256083C85EA010586EA010685FA47F5A3FA87F586FA47F6A5FA87F68EB9EED1F0BC01F0FF0102F0070217
:406AC00032B110F8013B013A83EA010313B1F8D10020704701387047002D06BF35460338073815F0010F07D1013015F4807F02BF013015F4C03F0130F0BC0138704700BFDC
:406B0000884210B501EB020301D8421E0BE09842FBD28118D21AD34204D013F8014D01F8014DF8E710BD994204D011F8014B02F8014FF8E710BD000038B50546002946D0DF
:406B400051F8043C0C1F002BB8BFE41800F0D6F81F4A1368114613B96360146032E0A3420ED92268A018834204BF18685B68636004BF121822600C6024E0A24203D8134622
:406B80005A68002AF9D118681918A1420BD12168014458188242196014D1106852685A60014419600EE002D90C232B600AE021686018824204BF10685268626004BF0918D8
:406BC00021605C602846BDE8384000F098B838BDC087020870B5CD1C25F0030508350C2D38BF0C25002D064601DBA94202D90C23336046E000F082F8234B1C681A46214658
:406C0000A1B10B685B1B0ED40B2B03D90B60CC18CD501EE08C420DBF63684B686360136018BF0C4615E00C464968E9E7174C23681BB9304600F052F820602946304600F0B5
:406C40004DF8431C18D0C41C24F00304A0420DD12560304600F053F804F10B00231D20F00700C31A0ED05A42E25070BD211A304600F034F80130EBD10C233360304600F0A8
:406C80003EF8002070BD00BFC0870208BC870208F8B5074615460E4621B91146BDE8F840FFF798BF1AB9FFF747FF2846F8BD00F027F885420ED929463846FFF78BFF04464A
:406CC00050B131462A46FFF738FB31463846FFF733FF01E03046F8BD2046F8BD38B5064C002305460846236000F014F8431C02D1236803B12B6038BD78880208704770475C
:406D000051F8040C0028BEBF091851F8043CC01804387047044A05491368002B08BF0B461844106018467047C487020880880208F8B500BFF8BC08BC9E467047F8B500BF53
:406D4000F8BC08BC9E46704701B40248844601BC604700BFD148020825730D0A000000005032000025732C6869742C25642C256C75000000476F7420636F6D6D616E643A6D
:406D80002027000047656E6572617465645F536F757263655C50536F43365C70646C5C647269766572732F7065726970686572616C2F7363622F63795F7363625F75617244
:406DC000742E680027000000776561706F6E2C6570656500776561706F6E203D2065706565000000776561706F6E2C666F696C00776561706F6E203D20666F696C00000056
:406E0000776561706F6E2C736162657200000000776561706F6E203D2073616265720000776561706F6E203D20756E6B6E6F776E000000005374617274757020706C61799B
:406E40006572205032000000696E697420424C452E2E2E2000000000696E69742043617053656E73652E2E2E200000005374617274757020646F6E652E00000076616C6925
:406E8000642068697420256C640000006F66662068697420256C64000300000001000000010000000000000005036000040000000100000000000000010000000604600062
:406EC0000800000018780208B50808105A0000000700000031000000070000002A00000007000000180000000700000047656E6572617465645F536F757263655C50536F65
:406F000043365C70646C5C647269766572732F7065726970686572616C2F6970632F63795F6970635F6472762E68000047656E6572617465645F536F757263655C50536F67
:406F400043365C70646C5C647269766572735C7065726970686572616C5C6770696F5C63795F6770696F2E630000000047656E6572617465645F536F757263655C50536F6A
:406F800043365C70646C5C647269766572735C7065726970686572616C5C6770696F5C63795F6770696F2E680000000047656E6572617465645F536F757263655C50536F25
:406FC00043365C70646C5C647269766572735C7065726970686572616C5C6970635C63795F6970635F6472762E68000047656E6572617465645F536F757263655C50536F20
:4070000043365C70646C5C647269766572735C7065726970686572616C5C6970635C63795F6970635F6472762E63000047656E6572617465645F536F757263655C50536FE4
:4070400043365C70646C5C647269766572735C7065726970686572616C5C6970635C63795F6970635F706970652E630047656E6572617465645F536F757263655C50536F42
:4070800043365C70646C5C647269766572735C7065726970686572616C5C70726F745C63795F70726F742E630000000047656E6572617465645F536F757263655C50536FFD
:4070C00043365C70646C5C647269766572735C7065726970686572616C5C737973636C6B5C63795F737973636C6B2E630000000047656E6572617465645F536F7572636583
:407100005C50536F43365C70646C5C647269766572735C7065726970686572616C5C737973636C6B5C63795F737973636C6B2E680000000047656E6572617465645F536F7E
:40714000757263655C50536F43365C70646C5C647269766572735C7065726970686572616C5C737973696E745C63795F737973696E742E630000000047656E6572617465F7
:40718000645F536F757263655C50536F43365C70646C5C647269766572735C7065726970686572616C5C737973706D5C63795F737973706D2E630000000020400000244075
:4071C000000000400000000000002340000030400000314000009F40000022400000104002020202020202020210101D800017007500FF03060206360410200000000000A5
:407200007FC0000000040000000000000019324B647D00804000080B100000000000FF012002001F00800004FF081018001000140018001C4044484C5000000008100000E5
