:020000041000EA
:4000000000400208230100100D00000085010010000000000000000000000000000000000000000000000000000000008101001000000000000000008101001081010010E9
:400040008101001081010010810100108101001081010010810100108101001081010010810100108101001081010010810100108101001081010010810100108101001060
:400080008101001081010010810100108101001081010010810100108101001081010010810100108101001081010010810100108101001081010010810100108101001020
:4000C00010B5064C2378002B07D1054B002B02D0044800E000BF0123237010BD3C060008000000008C210010084B10B5002B03D00749084800E000BF07480368002B00D17D
:4001000010BD064B002BFBD09847F9E700000000400600088C210010E8000008000000007047FFF7FDFF72B60F4C104DAC4209DA21686268A368043B02DBC858D050FAE7FC
:400140000C34F3E70A490B4A0020521A02DD043A8850FCDC084809490860BFF34F8F00F005F900F01DF8FEE790210010A82100103C060008140800080000000808ED00E00D
:40018000FEE7FEE700B504207146084202D0EFF3098001E0EFF30880043001F0C7F9FEE710B562B6014800F067F9FEE70000081010B5002000F036FF10BDC04670B5624929
:4001C000E0239B00CB580F2213401A00D0329200525807210A40032A05D0042A06D0002A12D15A4814E05A4A106811E01A00C0329200554952581F210A40112A06D0132A7C
:4002000004D0FA20C00103E0524801E080200002002B36D14C4BB222D2009A5801211140B125ED005A59120F032422405B591B0F1C4207D0444C63591B0F03242340012BDC
:4002400002D102E0012300E00023002B01D0002901D1032A4BD13C4BB022D2009D58AD03AD0B3D495958C904C90C9C58240E01231C40013401F064FC6843210001F060FCBC
:4002800035E0012B33D1304BC822D2009A5801251540C024E4001A59120F03210A401B591B0F194207D028490B591B0F03210B40012B02D102E0012300E00023002B01D049
:4002C000002D01D1032A12D11F4DC022D200AB587F210B40A958090A1F263140AC58240C3440584301F02CFC210001F029FCE0239B00154AD3581B0903221340D840144C48
:400300006060164B1D692D0AFC32154001351969090E013101F014FCA060290001F010FC0500E06020610E4BC0180E4901F008FC20750D4BE818FA21890001F001FCA06171
:40034000C003E06170BDC0460000264000127A00C000000800366E0184050000000021403F420F0040420F00E703000010B5284801F0E0FB274CB022D200A3585B005B0821
:40038000A350E0218900635830208343635080235B04A350204A214BE250A02292010433E250FF221E4BE25001F0B2FBC0225200A35801218B43A35000F09AF9FFF7FEFEA0
:4003C000B0235B055B78002B04D0B0235B055B78DBB200E02123212B03D1124B0022DA605A60114C22008021042000F0C1FB2000103000F055FC0D4B1A685123D35C002B75
:4004000002D00B4800F0C2FC00F08AFA10BDC046D42000100000264001000200840500008C050000E00023405806000810080008A81C00108023024AD35803201840704732
:400440000000214010B501F004F9084980228C58074B2340074C23438B508823034AD358DB06FAD501F0F9F810BDC04600002140FCFF00000100FA0570B50500830504D0DE
:40048000E821FF310F4801F023F801F0E2F80400FFF7D0FF032801D1FFF7D4FF0A4AB0239B00D55080215058084B03400848034353508823044AD358DB06FAD5200001F062
:4004C000CCF870BDDC1C001000002140FCFF00000300FA05FEE7C0460322034B1A60034A034B1A607047C0461020314001001180000E1F4130B587B06E49A022D2008B5810
:40050000032083438B506C4A116808688823CB58C31818686949084018601368186884241B59C01803681B021B0A80256D042B430360106805680359EB18186801401960BC
:4005400013683E229A5C002A06D05A48E02189004258753CA24342503E229A5C002A06D05448E021890042583024A24342503E229B5C002B07D04F49E02292008B588020D3
:40058000000603438B500021012000F07DFD0021022000F079FD0021032000F075FD0021042000F071FD0021002000F06DFD01A8434903000A0032CA32C312CA12C300F007
:4005C00091FD002802D00420FFF784FF39493D4A8B588020000603438B503B4800F03EFE002802D00420FFF775FF324C374BE158374A0A40E250E158364A0A40E250E25847
:4006000080252D062A43E250043BE158324A0A40E250E158314A0A40802189010A43E250E258802109020A43E2502D4A11682D4B0B40802149000B431360002001F04AFA13
:40064000294BE2581543E550E158012291430A43E2506421002000F081FF174B1B683F229A5C332A03D90021204A986881509A6874215B5AD2181168104B0B40FE2109022B
:400680000B4313600C4B1A687323D15C703B8B4019007023D35C7220105C83400B43802109060B438021C9009068435093685B5807B030BD0000264010080008FF00FFFFB5
:4006C000F41C0010087F0000400D030004050000FEFCFFFFFFFF00FFFFF0FFFFFF8FFFFF00002740FFFCFFFF0C050000CC0C000070B58AB09621002000F030FF00F006FFF9
:40070000002814D100F0F2FEC0235B00254AD358DB0705D41100244A8B585B005B088B502049214A8B588020000603438B50012001F068F91D4A516C1D4B0B40E8218901E3
:400740000B435364536C1B0AFF2213403A2B07D1164A516C174B0B40E82189010B435364FFF7C8FE01AD144C2A002300143343CB43C243CB43C243CB43C229000F4800F076
:40078000D7F82A002300383313CB13C213CB13C213CB13C229000A4800F0CAF8FFF79CFE0AB070BD000026400C05000000002740FF00FFFFFFC5FFDFF41C001000033240E3
:4007C00080033240214B984230D00ED8402831D004D800281FD010282AD031E080282BD080235B00984229D02AE0194B984229D007D8A0231B0698420DD0164B984212D0ED
:400800001EE0154B98420AD0144B984209D0144B984215D101E0002016E0124814E0124812E0124810E0A020C0030DE007480BE00F4809E00F4807E00F4805E0034803E008
:400840000E4801E0A420C0037047C04606005200010000F0090000A0040000F0050000F0030000F0010052000200520003005200010050000200500005005200FF005200E8
:4008800070B5124B1A683123D35C002B04D1C421FF310F4800F01CFE0C4B1D682C00B423EB582A6A944663441B68002B0BDB094B1868FFF787FF6B6801229A6063689B6862
:4008C000002BFBD100E0044870BDC04610080008501D0010E80700080200500010B50D4B1861002805D002230370FD33437000234380094B1B6850229A5C002A08D0512214
:400900009B5C002B04D04F3A0449002000F0F8FA10BDC046E8070008100800086101000810B502481430FFF7D9FF10BDE807000870B505000C0000285DD000295DD0FF23AD
:400940000A689A4303D099212D4800F0C1FDFF2322699A4303D09A21294800F0B9FDA3685B0D03D09B21264800F0B2FD63685B0A03D09C21224800F0ABFDE3695B0F03D0EF
:400980009D211F4800F0A4FD236A5B0F03D09E211B4800F09DFD1B4A11688B69EB1ADB0949691B01CB18216829607D211068415C6918E06808607E211068415C69182069EB
:4009C00008607F211068415C6918606908607C211068415C6918A06808606168A961116880228A5CAD18A2692A60E2691A60226A5A60002002E0044800E0034870BDC046A0
:400A0000901D00101008000801005A0070B504000D000A4B1A68B423D3581B181B68002B0ADA0B0C03D00649064800F051FD2D042D0C6560002000E0034870BD100800081E
:400A4000D5020000101E001001008A0070B505000C000368002B01DA002300E0084B002B0BD1EA60230C03D00649074800F030FD2404240CAC60002000E0014870BDC046EB
:400A800001008A00BB020000101E001070B505000C1E03D19921084800F01AFD074B1A68B423D3585B191B68002B03DAEB682360002000E0024870BD501E001010080008B7
:400AC00001008A0070B504000D00234B1A683123D35C834236D9002936D00B68DB0635D13123D35C984204D3C421FF311B4800F0EFFC194B1B681A6AB0215B5A5C43141921
:400B0000174E34602B68DA080021686801F0A4F800212000FFF77AFF3468002D03D111490E4800F0D5FC2A0000212000FFF78EFF00280DD10A4B18680021FFF767FF00289D
:400B400008D108E0084806E0074804E0064802E0064800E0054870BD10080008101E0010000800089303000003018A0001018A0010B50400002A17D1002915D1124B1A688C
:400B80003123D35C984204D3C421FF310F4800F09FFC0D4B1B681A6AB0215B5A5C4314190B4B1C6000200EE0002A09D0002909D0074B59609A60191D2000FFF783FF02E0BF
:400BC000044800E0034810BD10080008101E00100008000803018A00F0B583B00D001C4B1B68DC68236883422DD947097B01C01A012383401E00002903D100F02AFD0190FC
:400C000001E000230193124B18680368002B01DA002300E00F4B002B0ED16368BF00DF193B68334203D0B3433B60002400E00A4C0021FFF7EBFE00E0084C002D04D1019840
:400C400000F00BFD00E0064C200003B0F0BDC0460008000801008A00020188000301880004018A000A4B1B68DA68136883420BD943095901401A0121814052689B009B581A
:400C80000B4203D0034802E0034800E003487047000800080101880004018A0000018800034B1B68002B01D1014B18607047C0460C080008F0B5474680B404000F0090464E
:400CC0001E002D4B1B68002B03D1B5212B4800F0FFFB294B1B682C2060431C18FF22150035402560330A13406360360CA660244B1A683123D35C9D4204D3C421FF3121481C
:400D000000F0E6FB1E4B1A68B023D35A6B43116A8C466344236166683223D35C9E4204D3E021FF31174800F0D3FB154B1B681D6A80367601AD196561A668330C04D0FF2116
:400D40004900104800F0C4FB330C03D00E490D4800F0BEFB3604330C1E43AE604346E36127620023A361069B002B02D000229B5EA38104BC9046F0BD0C080008901E00105D
:400D800010080008101E0010FF010000F0B58FB0041E03D15221294800F09AFB6368032B03D95421254800F093FBE36A002B03D15821224800F08CFB236B002B03D15921B0
:400DC0001E4800F085FB07AA1300210061C961C321C921C302AD290023001433C1CBC1C141CB41C10821535E0CAE3380144B1B6836215B5E07998C466344B370089B0D9306
:400E00000B9B0A980096A26AE16AFFF753FF2B69E868002200920021FFF74CFF216B300000F0E8FA0023F25E002A05DB1F231A401E3B9340034A13600FB0F0BD901E00107E
:400E40001008000800E100E0F8B505000F0016001C00002A03D1FD21224800F039FB224B1B68002B03D1FE211E4800F031FB1E4B1B682C21280048431818794359180122F8
:400E800013004D68AB401B044568AA4015000269002A20D08F69002F1FD11268002A01DA002200E0114A002A19D132681204120C134333600369DE6001238B614C6204699C
:400EC0002B0C03D00A490B4800F002FB2A04120CA260002004E0084802E0084800E00748F8BDC046901E00100C08000801008A00BB020000101E001004028A0007028A0014
:400F000070B504000D0016000F4B1B68002B04D1AF2149000D4800F0DBFA0B4B1B682C2060431C18236A002B04D1B1214900074800F0CEFAE369B34204D9236AB6009D515B
:400F4000002000E0024870BD0C080008901E00100A028A0070B582B0040000230193002804D1D221FF312D4800F0B2FA2369002B04D1E9214900294800F0AAFA6369002B6C
:400F800004D1D421FF31254800F0A2FA236A002B04D1EA214900214800F09AFA6269D5682B0C24D01B041360136820691C4B1A68B423D358C3181B68002B18DA01A9FFF7A1
:400FC00065FD00280ED1019803681E0CFF221340E269934207D29B00226AD358002B02D0984700E0002631002069FFF70FFD2D042D0C0FD063691D601B68636A002B03D01D
:4010000098470023636203E0A36A002B00D098470023A36163691B6802B070BD901E00101008000810B50400084B1B68002B04D1B221FF31064800F04BFA044B1B682C20A9
:4010400060431818FFF786FF10BDC0460C080008901E001010B50400094B1B689B6CC340DB0703D4BE21074800F032FA044B1B681B691034A402E3580F20184010BDC046F3
:4010800010080008D01E0010134B1A683C23D35C83421DD9042904D94B1EFF3B9BB2132B18D8FF290CD91F2319400C4A0300C0339B009950D03080000423835000200AE0C5
:4010C00007231940D0308000044BC150002002E0034800E002487047100800080000264001004A0070B5041E03D14A494A4800F0EFF9B023DB00494AD358002B00DA87E09E
:40110000474B22689A4203D94649434800F0E0F923689B039B0BE279002A02D08022520400E000221343B022D2003C498B50A2883D4B9A4204D98C218900374800F0C8F9AD
:4011400022893A4B9A4203D93949334800F0C0F9A388DB04D90C23891B04364A13400B43354A2E498B50A37A0F2B04D98E218900294800F0ADF9E37A0F2B03D92F49264869
:4011800000F0A6F9A289284B9A4203D92C49224800F09EF9A37A0F211940E27A1201FF2313400B43A289120226490A401343A27B1207C02189050A401343B122D200174974
:4011C0008B50A379042B03D91F49134800F080F9228A164B9A4204D9912189000E4800F077F90E4819494558194B1D40A3791B02E022D20013402B4343504558154B1D4039
:40120000238A1B040B4A13402B434350002000E0114870BD1F020000101F001000002640FFFF030029020000FF1F0000FF010000310200000000FF018405000039020000AC
:401240003A02000000FF1F00430200008C050000FFF8FFFFFFFF00FE03004A0070B505003149324A8B588020000603438B502C0003E0012000F020F9013CB223DB002A4A9C
:40128000D3585B0701D4002CF3D12749B122D2008858274B03408020800503438B50002D01D0002C0CD02049B022D2008B588020000603438B5003E0012000F0FDF8013C09
:4012C000B223DB00184AD358DB0701D4002CF3D1002D01D0002C08D01349B122D2008B58C020800503438B5013E00F4BB121C90058580F4A02408020800502435A50083916
:401300005A58520052085A5008495A58520052085A50002D03D0002C03D0002002E0002000E0044870BDC046000026408C050000FFFFFFCF02004A0070B505000C001A4B22
:401340001B6828229A5C012A15D1820807211000884327D19200AD1AED00FF20A8401B6820339A181168AC4023004B40184004004C40146016E03A229B5EDBB2994203D149
:4013800076210A4800F0A4F8074B1B681B68072215408022120615438022920194466444A400E55070BDC04610080008981F001070B504000D000B4B9A680B4B9A420CD189
:4013C000002904D13821FF31084800F081F81034054BA400E058E55003E01034A400044BE05870BD00ED00E000000008981F001000000010F0B5474680B482B0061E01918F
:401400004AD04368032B03D93221264800F060F80023F05E002804DBB178FFF78DFF002400E0214C0023F15E7368002912DB88081E4FC0308000C55903221140C900FC32E5
:4014400090468A4095439A01434613408B402B43C35116E089B20F220A40083A92080632920013481018476803221140C900FF252A008A4097439A012B0013408B403B4319
:4014800043600B4B9A680B4B9A4206D10023F05E0199FFF78DFF00E0034C200002B004BC9046F0BD981F00100100560000E100E000ED00E00000000810B5034B1B78584362
:4014C00000F0BEF810BDC046D400000801BEFEE770B50D00044C18220100200000F0C4FBA5610020FFF7F2FF00060008054B802212069A649B6C002B01DB002000E00248EC
:401500007047C0460000274003004600054B8022120198585B68FF221A4202D08023DB021843704700002640FEE7C04610B50A4B0268DA6142681A6282685A62C2689A62A3
:401540000269DA6242691A6382695A63C2699A63FFF7EAFF10BDC04600060008F0B5474680B4002801D0192300E064238B429B415B42304D2C682268A826A45BA418226816
:401580000327BA433B401A4322602C682268A45BA2181668284CA046264016602C682668AA229446A25A96193268BA43134333602A6813686546525BD3181A68444614407C
:4015C0001C60002805D010291BD921291BD8012024E0184B1B6855229A5C914215D956229A5C914213D957229A5C914211D958229A5C91420FD959229B5C99420DD80420F5
:401600000CE000200AE0022008E0002006E0012004E0022002E0032000E00520054A1268526813680F218B430343136004BC9046F0BDC04610080008FFFCFFFF000000005C
:401640000230800803D001300238FCD1C046C0467047EFF3108072B6704780F31088704710B5B0235B059B899BB2002B04D0B0235B059B899BB201E080235B0080225200F0
:40168000934215D1184C23681968683A9B58C9180B680F208343963A13430B6021680C689C23CB58E318196881430A431A6019E00D4C2368196898229B58C918B0204005A9
:4016C0000A4BC2580A4B13400A681343C022920013430B60226811689C23D358CB18054A82581A6010BDC0461008000848180000FFFCFFFF4418000030B5B0235B059B897F
:401700009BB2002B04D0B0235B059B899BB201E080235B0080225200934215D1184C23681968683A9B58C9180B680F208343953A13430B6021680C689C23CB58E3181968F2
:4017400081430A431A6019E00D4D2B68196898229B58C918B0246405C12040012258094B13400A681343C022920013430B602A6811689C23D358CB1822581A6030BDC046AD
:4017800010080008FFFCFFFFB0235B059B899BB2002B04D0B0235B059B899BB201E080235B008022520093420DD1104B1B681A6898215B58D21811680D4B0B40C021C901C6
:4017C0000B43136011E0094B1B68196898229B58C918084BB0225205D258074B13400A681343C022920013430B60704710080008FF8FFFFF18180000FFFCFFFF30B5B023C5
:401800005B059B899BB2002B04D0B0235B059B899BB201E080235B008022520093420DD1134B1B681A6898215B58D2181168114B0B408021C9010B43136018E00C4D2B68C5
:40184000196898229B58C918B02464050A4822580A4B13400A681343C022920013430B602A6811689C23D358CB1822581A6030BD10080008FF8FFFFF4C180000FFFCFFFFE9
:4018800010B5B0235B059B899BB2002B04D0B0235B059B899BB201E080235B0080225200934217D10020FFF7D5FBB0235B055B78002B04D0B0235B055B78DBB200E02123EA
:4018C000222B03D8002803D1013004E0012002E0002000E0012010BDF8B50700012803D93D493E48FFF7F4FDB0235B055B78002B04D0B0235B055B78DBB200E021239DB207
:40190000B0235B059B899BB2002B04D0B0235B059E89B6B201E0802676000020FFF79AFB002814D180235B009E4212D1222D12D82B4B1B685C682B4821582B4B19403B06DA
:401940008022520413400B432350002404E0274C02E0264C00E0254C80235B009E4201D1222D03D880235B009E4232D01C4B1A683123D35C002B04D1C421FF311C48FFF7A6
:40198000A7FD174B1B681D6A80235B009E4203D1002F05D0174A06E0002F03D0164A02E0164A00E0164A01212800FFF74FF800280FD10B4B1A68B423D3585B191B68002BAB
:4019C000F7DBEB681B0E1B06A0221206934200D100242000F8BDC0464C0A0000DC1F00101008000818F00000FFFFFFFE04004200501D0010010100300300000C0100003040
:401A00000100000CF8B50500012804D9822109012948FFF75DFDFFF733FF002849D0FFF718FE0700002D11D10021244B244AD150E823DB00B0225205D65CF6B20120FFF7C9
:401A40004BFF041E19D1FFF70BFE16E0B02252051C4BD0581A4B194958501B49565CF6B21A481A581F218A4314390A431A500320FFF722FDFFF7C2FE0024002C15D11049D4
:401A8000124A8B581F20834306401E438E50002D02D1FFF779FE08E00720FFF70DFDFFF72BFE0020FFF718FF04003800FFF7D5FD00E0074C2000F8BDDC1F0010307F0000CF
:401AC0000000264010180000410700001CFF000003004200042805D10B4A116804230B4313600FE0094B1A681168A023D358CB180006C022920410401860034A13680421B6
:401B00008B4313607047C04610E000E0100800080749C02252008B589B009B088020C00503438B508B588020000603438B50704700002640014B18607047C0461008000824
:401B4000002243088B4274D303098B425FD3030A8B4244D3030B8B4228D3030C8B420DD3FF22090212BA030C8B4202D31212090265D0030B8B4219D300E0090AC30B8B42F4
:401B800001D3CB03C01A5241830B8B4201D38B03C01A5241430B8B4201D34B03C01A5241030B8B4201D30B03C01A5241C30A8B4201D3CB02C01A5241830A8B4201D38B02B5
:401BC000C01A5241430A8B4201D34B02C01A5241030A8B4201D30B02C01A5241CDD2C3098B4201D3CB01C01A524183098B4201D38B01C01A524143098B4201D34B01C01A2A
:401C0000524103098B4201D30B01C01A5241C3088B4201D3CB00C01A524183088B4201D38B00C01A524143088B4201D34B00C01A5241411A00D20146524110467047FFE785
:401C400001B5002000F006F802BDC0460029F7D076E770477047C04603008218934202D019700133FAE77047030030B5002A0DD00C7801335D1E013A2C700131002CF5D164
:401C80009A189A4202D01C700133FAE730BD0000F8B5C046F8BC08BC9E467047F8B5C046F8BC08BC9E46704703000000010000000100000000000000050360000400000039
:401CC0000100000000000000010000000604600008000000C8070008B101001073797374656D5F70736F63365F636D30706C75732E630000F4010000140004010A0009050E
:401D00000800000063010000040000000000000000000000000000BA0000000000000000000000000000000000001D1D80000000000000000000000060000000000000005F
:401D40000000000000000000000000000000000047656E6572617465645F536F757263655C50536F43365C70646C5C647269766572732F7065726970686572616C2F6970C3
:401D8000632F63795F6970635F6472762E68000047656E6572617465645F536F757263655C50536F43365C70646C5C647269766572735C7065726970686572616C5C6770E1
:401DC000696F5C63795F6770696F2E630000000047656E6572617465645F536F757263655C50536F43365C70646C5C647269766572735C7065726970686572616C5C67703C
:401E0000696F5C63795F6770696F2E680000000047656E6572617465645F536F757263655C50536F43365C70646C5C647269766572735C7065726970686572616C5C6970F4
:401E4000635C63795F6970635F6472762E68000047656E6572617465645F536F757263655C50536F43365C70646C5C647269766572735C7065726970686572616C5C6970F1
:401E8000635C63795F6970635F6472762E63000047656E6572617465645F536F757263655C50536F43365C70646C5C647269766572735C7065726970686572616C5C6970B6
:401EC000635C63795F6970635F706970652E630047656E6572617465645F536F757263655C50536F43365C70646C5C647269766572735C7065726970686572616C5C70720B
:401F00006F745C63795F70726F742E630000000047656E6572617465645F536F757263655C50536F43365C70646C5C647269766572735C7065726970686572616C5C7379C4
:401F400073636C6B5C63795F737973636C6B2E630000000047656E6572617465645F536F757263655C50536F43365C70646C5C647269766572735C7065726970686572619A
:401F80006C5C737973636C6B5C63795F737973636C6B2E680000000047656E6572617465645F536F757263655C50536F43365C70646C5C647269766572735C706572697041
:401FC000686572616C5C737973696E745C63795F737973696E742E630000000047656E6572617465645F536F757263655C50536F43365C70646C5C647269766572735C70F4
:4020000065726970686572616C5C737973706D5C63795F737973706D2E6300000000204000002440000000400000000000002340000030400000314000009F40000022405F
:402040000000104002020202020202020210101D800017007500FF030602063604102000000000007FC0000000040000000000000019324B647D00804000080B100000009E
:402080000000FF012002001F00800004FF081018001000140018001C4044484C500000000810000008000000040000000410000000120000042100000021000000160000C6
:4020C00040114002C41300138013A013200000001C0000000000214000002540000001400000344000002440000031400000324000001F4100002340000011400101010107
:402100000101010101101010800019005500F0000501053B04101C01010000000FC000000004000001010101011D3A57789600082000101208000000001F00000010000FF0
:40214000002000023F06080E00080009000A000B24282C3034000000100000009000000088000000080000008000000004F0000000F00000400200002005A000D001000173
:402180008001A0012000000010000000000000000000001000000008C0000000B0210010C0000008400500003C060008D80100000048E80100127A0000093D0000093D009B
:4021C00000093D0004000000A00F00000000D007E9000010C10000100000000010B50004400B27D0144B1A68146AB023D15ACA00531AE3181B68002BF4DA3E220F4B1A60FB
:402200000F4A104B1A60104B0621A322D20099500E4A98509B58084B1A68106AB023D15ACA00531AC31800225A60084B064AD358002BFADA10BDC0461008000804012640D5
:402240001E1F000008012640000026401C05000010B54378FF2B20D100F042FA04000F4B1A683123D35C042B04D8C421FF310C4800F02EFA094B1A68116AB023D35A9B0089
:40228000CB18DB685A68116801230B4313601368DB07FCD4200000F003FA10BD10080008501D0010F0B585B001900291544B1A683123D35C002B04D1C421FF31514800F0F4
:4022C00007FA4F4B1B681E6AB4229A58971950229B5C002B77D000F0EBF9050003283CD1474B1A683123D35C062B04D8C421FF31444800F0EDF9424B1968B023CB5A5A0059
:40230000D21853000A6A94466344B4228A58D3181B68002B23DB002000F0BAF93A4B98421FD03A4B1A6900230021012000F0A0F9002803D0364C17E0013400E00024002048
:4023400000F0A6F9304B984202D0324B9C42F3D9304B9C4207D92E4C06E0002404E02C4C02E02B4C00E00024002C46D100F0B8F90390294B294AD358002B13DA234A0121DA
:40238000300000F09DF900280ED10298FFF726FF019B002B0AD03B68002BFCDB00F070F9040004E01A4C02E0194C00E01C4C032D05D10121002000F053F90028F9D103981E
:4023C00000F06EF919E000F08BF905000F4A0121300000F075F9002809D1019B002B08D03B68002BFCDB00F04BF9040002E0084C00E00B4C280000F053F9200005B0F0BD3A
:4024000010080008501D001001018800E807000805005200EF4902001C0500000000264001005000F0B54F464646C0B4824B1A685468B0235B055B78002B04D0B0235B0598
:402440005B78DBB200E02123212B67D1B023D15ACB005B1A116A8C46634419680029F5DADD6802212943D960B023D15ACB005B1A116A8C466344D968C9073ED5D9680904F8
:40248000090C8C4684271168D559A84641440968090A0904FF26360431400D0088261168894691598846C14449460968090A0906294365462943D9601168D359C9180A6879
:4024C0005E4B98461A4090252D012A430A605A4B99461A6813689C46925962441368414619400B002B4313604B461A681568D15969180B689359EB181B684F4B1A68B021F9
:40250000555AEB005B1B156AAC46634400255D60156A515ACA00531AEB185B68484A116904230B431361012801D030BF00E020BF414B1A68B023D15ACB005B1A116A8C4634
:40254000634419680029F3DAB02149054978002904D0B02149054978C9B200E02121212932D1D968C90722D510688421525880180468324A1440DB681B0C1B02FF21090241
:402580000B40234303602C4B19688823C8580B689C46604403681A400D6AB023CC5AE1000B1BEB18DB681B0E1B021A430260224B1A68106AB023D15ACA00531AC318DA6809
:4025C00002218A43DA6028E086235B00E358002B23D11C4807681C4BA321C9005E581B4A904615681A4A0260062058503E21424611600631174A9950164B134AD358002B95
:40260000FADA154A86235B00E2500E4B1F60A323DB000D4AD6500D4B1D60074B1A68106AB023D15ACA00531AC31800225A600CBC90469946F0BDC04610080008FF00FFFFDF
:4026400000ED00E00801264000002640040126401E1F00001C050000AAAAAAAA0000000001B40248844601BC604700BFD90B001001B40248844601BC604700BF490E001014
:4026800001B40248844601BC604700BF8108001001B40248844601BC604700BF650C001001B40248844601BC604700BF5B16001001B40248844601BC604700BF3504001086
:4026C00001B40248844601BC604700BF4D0A001001B40248844601BC604700BFD114001001B40248844601BC604700BF531600100000000000000000000000000000000041
:402700000000000000000000000000000000000000000000000000000000000000000000000000000000000000000000000000000000000000000000000000000000000099
:402740000000000000000000000000000000000000000000000000000000000000000000000000000000000000000000000000000000000000000000000000000000000059
:402780000000000000000000000000000000000000000000000000000000000000000000000000000000000000000000000000000000000000000000000000000000000019
:4027C00000000000000000000000000000000000000000000000000000000000000000000000000000000000000000000000000000000000000000000000000000000000D9
:020000041008E2
:4000000000780408EB0208100D00000051030810510308105103081051030810000000000000000000000000000000004D0308104D030810000000004D0308104D030810DA
:400040004D0308104D0308104D0308104D0308104D0308104D0308104D0308104D0308104D0308104D0308104D0308104D0308104D0308104D0308104D0308104D03081000
:400080004D0308104D0308104D0308104D0308104D0308104D0308104D0308104D0308104D0308104D0308104D0308104D0308104D0308104D0308104D0308104D030810C0
:4000C0004D0308104D0308104D0308104D0308104D0308104D0308104D0308104D0308104D0308104D0308104D0308104D0308104D0308104D0308104D0308104D03081080
:400100004D0308104D0308104D0308104D0308104D0308104D0308104D0308104D0308104D0308104D0308104D0308104D0308104D0308104D0308104D0308104D0308103F
:400140004D0308104D0308104D0308104D0308104D0308104D0308104D0308104D0308104D0308104D0308104D0308104D0308104D0308104D0308104D0308104D030810FF
:400180004D0308104D0308104D0308104D0308104D0308104D0308104D0308104D0308104D0308104D0308104D0308104D0308104D0308104D0308104D0308104D030810BF
:4001C0004D0308104D0308104D0308104D0308104D0308104D0308104D0308104D0308104D0308104D0308104D0308104D0308104D0308104D0308104D0308104D0308107F
:400200004D0308104D0308104D0308104D0308104D0308104D0308104D0308104D0308104D0308104D0308104D0308104D0308104D0308104D0308104D0308104D0308103E
:400240004D0308104D0308104D0308104D0308104D0308104D0308104D0308104D0308104D0308104D0308104D0308104D0308104D0308104D0308104D0308104D030810FE
:400280004D0308104D0308104D03081010B5054C237833B9044B13B10448AFF300800123237010BD5C76020800000000F87A0810084B10B51BB108490848AFF30080084807
:4002C000036803B910BD074B002BFBD0BDE81040184700BF0000000060760208F87A08101C470208000000007047FFF7FDFF72B6104C114DAC4209DA21686268A368043BDF
:40030000A2BFC858D050FAE70C34F3E70B490C4A00209142BCBF41F8040BFAE709480A490860BFF34F8F00F083F900F05DF900F03BF8FEE75C9E0A10749E0A105C7602086E
:40034000188802080040020808ED00E0FEE7FEE700B504207146084202D0EFF3098001E0EFF30880043001F049F9FEE708B544F20803984206D045F20103984209D0B0F5FB
:40038000805F0CD10020064B1870014602F06CFC08BD0122024B1A700A88024B1A8008BD787602089887020830B58BB062B6204803F0DEF903F00AFA03F016FD00242546D3
:4003C00029F0D4F803F0C2FC38B903F015FA002003F052FBC4B203F007FD1CB315BB0222144BDA60144D6B6801336B60134A144905A805F049FA2B789BB1124B1B88ADF8E5
:4004000010301223ADF80C3005A8019005F060FAADF8080001A80EF0E1FE29F0A7F8012500E0012504B90025142001F0ABF8C7E76D0308108003324078760208D8610810A4
:40044000DC6108109887020808B5012000F0E6FE08BD00BF704700BF5C4AD2F8803303F00F0303F1D00152F8212002F00702032A04D0042A05D092B9554914E0554A1168E6
:4004800011E003F1C002514951F8222002F01F02112A06D0132A04D04FF4FA4103E04E4901E04FF400418BBB484BD3F8902502F00100D3F88825C2F30172D3F8883513F067
:4004C000405F07D0414BD3F88835C3F30173012B02D102E0012300E0002303B108B9032A46D13A48D0F88025C2F31103D0F88425C2F30C02D0F88005C0F300600130B1FB5E
:40050000F2F202FB03F2B2FBF0F131E0012B2FD12E4BD3F8402602F00100D3F80026C2F30172D3F8003613F0405F07D0274BD3F80036C3F30173012B02D102E0012300E068
:40054000002303B108B9032A12D12048D0F8002602F07F02D0F80036C3F30423D0F80006C0F3044002FB01F2B2FBF3F2B2FBF0F1164BD3F88033C3F3011321FA03F2154943
:400580004A601648D0F89030C3F3072301330069000E0130B2FBF0F08860B2FBF3F3CB600B6103F5742202F23F220D48A0FB0202C2F387420A7503F2E7330A4AA2FB032356
:4005C0009B098B61DB03CB61704700BF0000264000127A008C42020800366E010000214083DE1B43D34D621008B50D4801F038FCFFF730FFFFF730FF00221146042000F0BC
:4006000091FB084800F068FC074B1B6893F8513013B1064800F0D0FC00F0E8F808BD00BFB0650810807602089C870208E861081008B501F03EF8074AD2F8883043F470036B
:40064000C2F88830BFF34F8FBFF36F8F01F035F808BD00BF00ED00E0C0F30800B0FA80F0400970471F4B98422DD00CD840282ED003D8E8B1102828D02FE0802829D0B0F500
:40068000807F28D029E0184B984228D006D8B0F1204F0DD0154B984212D01EE0144B98420AD00133984209D0023B984215D101E0002070470F4870470F4870470F48704747
:4006C0004FF4A0007047074870470D4870470D4870470D487047034870470C4870474FF4A400704706005200010000F0090000A0040000F0010052000200520003005200A9
:40070000010050000200500005005200FF00520038B5124B1B6893F83130012B04D840F2C3110F4800F052FF0C4B1D682A6AB5F8B03013442C46D5F8B420D358002B0BDB6C
:40074000084B1868FFF78EFF6B6801229A6063689B68002BFBD138BD034838BD9C8702082C62081000780208020050001A4B186128B102230370FF23437000234380174B26
:400780001B6893F850202AB300B583B0B3F93830ADF80030002301931149684600F0B8FEBDF90030002B08DB590903F01F03012202FA03F30B4A42F82130084B1B6893F8E7
:4007C000513023B102220849012000F0A1FC03B05DF804FB704700BF007802089C8702088D47020800E100E04548020808B50248FFF7BCFF08BD00BF1478020838B5054615
:400800000C46FFF729FF002833D0002C33D0FFF723FE1A4B1A4A1A6000225A609D60DC60184B1B6893F85220EAB11968D3F88430CA58CB58C3F30721120E531C01FB03331D
:40084000114901FB03F3114A12681149A1FB02218909B3FBF1F101F5195108314FF4807005F0B2FC38BD00214FF4807005F0ACFC38BD084838BD074838BD00BF0078020808
:40088000000100059C870208C0EA210190420208D34D62100600520008B5FFF739FF08BD10B50446FFF7D8FE00283AD0FFF7D4FD4FF0E0521C4B1A601C4B1B7813F0FF0F92
:4008C00004D0194A136843F480731360164B5C6000229A60DA60164B1B6893F85420DAB11968D3F88430CA58CB58C3F30721120E531C01FB03330F4901FB03F30E4A1268C8
:400900000E49A1FB02218909B3FBF1F101F69801002005F059FC10BD0021084605F054FC10BD074810BD00BF007802080B0000169C87020860F5900090420208D34D621039
:400940000600520038B505460C46FFF785FE00283DD0002C3DD0FFF77FFD4FF0C0621E4B1A601E4B1B7813F0FF0F04D01A4A136843F480731360184B4FF480725A609D604C
:40098000DC60174B1B6893F85320DAB11968D3F88430CA58CB58C3F30721120E531C01FB0333104901FB03F30F4A12680F49A1FB02218909B3FBF1F101F56171002005F075
:4009C00003FC38BD0021084605F0FEFB38BD084838BD074838BD00BF007802080B0000169C870208808D5B0090420208D34D621006005200002861D0F8B5054600295FD0C2
:400A00000C460B6833F0FF0303D099212D4800F0DDFD236933F0FF0303D09A21294800F0D5FDA3685B0D5B051BB19B21254800F0CDFD636823F4FF7323F001031BB19C2118
:400A4000204800F0C3FDE36913F0604F03D09D211C4800F0BBFD236A13F0604F03D09E21184800F0B3FD184A11688B69EB1ADB0949691B01C81826682E60166896F87D6087
:400A8000E768AF51166896F87E602769AF51166896F87F606769AF51166896F87C60A768AF516668AE61126892F88020A669AE50E269CA50236A43600020F8BD03487047C1
:400AC0000248F8BD6C6208109C87020801005A002DE9F04104460D46174698469DF81860072903D9D921354800F070FD37F00F0303D0DA21314800F069FDB8F1010F03D912
:400B0000DB212E4800F062FD36F01F0303D0DC212A4800F05BFD22680123AB4022EA030308F0010808FA05F843EA08032360244B1B6893F87D100B59A8000F22824023EAA6
:400B4000020207F00F0303FA00F717430F51072D04D94FF422711B4800F038FD36F01F0304D040F28921174800F030FD144B1B689A69A41AE4095B6924011919032D0DD817
:400B80001959ED001F22AA4021EA020206F01F0606FA05F515431D51BDE8F081043D4A68ED001F23AB4022EA030306F01F0606FA05F51D434D60BDE8F08100BF6C620810AF
:400BC0009C870208AC62081038B50B4B1B68D3F8B4301B58002B0DDA0D4604460B0C1B0423B140F2D521054800F0F0FCA9B26160002038BD024838BD9C870208EC620810AD
:400C000001008A0038B50368002B01DA002300E0094B73B90D460446C2600B0C1B0423B140F2BB21054800F0D1FCA9B2A160002038BD014838BD00BF01008A00EC62081008
:400C400038B504460D4619B99921084800F0BEFC074B1B68D3F8B4301B59002B03DAE3682B60002038BD034838BD00BF2C6308109C87020801008A00254B1B6893F831303C
:400C800083423AD900293AD00B6813F01F0F38D170B50D4604461E4B1B6893F83130984204D340F2C3111B4800F090FC184B1B68186AB3F8B03004FB0304174E34602A68C8
:400CC000D2080021686804F0D7FD00212046FFF77BFF346825B940F293310E4800F076FC2A4600212046FFF78DFF60B900210A4B1868FFF769FF40B970BD084870470748E0
:400D0000704706487047064870BD054870BD00BF9C870208EC6208101878020803018A0001018A0010B504461346B2B9A9B9124B1B6893F83130984204D340F2C3110F48ED
:400D400000F044FC0C4B1B681A6AB3F8B03004FB03240B4B1C60002010BD43B149B1084A51609360111D2046FFF786FF10BD054810BD044810BD00BF9C870208EC62081030
:400D80001878020803018A002DE9F0411B4B1B68DC68236883422CD90D464609A0EB4610012303FA00F819B900F083FC074600E00027124B18680368002B01DA002300E0C0
:400DC0000F4B83B9626852F8263018EA030F05D148EA030342F82630002400E0094C0021FFF7F2FE00E0084C25B9384600F065FC00E0064C2046BDE8F08100BF18780208F9
:400E000001008A00020188000301880004018A002DE9F0411B4B1B68DC68236883422CD90D464609A0EB4610012303FA00F819B900F03FFC074600E00027124B1868036883
:400E4000002B01DA002300E00F4B83B9626852F8263018EA030F05D023EA080342F82630002400E0094C0021FFF7AEFE00E0084C25B9384600F021FC00E0064C2046BDE8E2
:400E8000F08100BF1878020801008A00020188000301880004018A000B4B1B68DB681A6882420CD94109A0EB4110012202FA00F05B6853F82130184203D0044870470448E0
:400EC00070470448704700BF187802080101880004018A0000018800024B1B680BB9014B18607047247802082DE9F8430446884691461D46089F2C4B1B681BB9B5212B4827
:400F000000F064FB284B1B682C2000FB04F01C18EEB21E50C5F3072363602D0CA560244B1B6893F831309E4204D340F2C311214800F04CFB1E4B1B68196AB3F8B02006FBE6
:400F400002162661666893F832309E4204D340F2DF11184800F03AFB154B1B681D6A803605EB46156561A668330C1B0423B14FF4FF71104800F02AFB330C1B0423B140F2C4
:400F8000FF110C4800F022FBB3B243EA0646AE60C4F81C90C4F820800023A36117B1B7F90030A381BDE8F883247802086C6308109C870208EC620810F0B58FB0044618B9DE
:400FC0005221274800F002FBA369072B03D95621234800F0FBFAE36A1BB95821204800F0F5FA236B1BB959211D4800F0EFFA07AD04F114060FCE0FC537682F6002AD264689
:401000000FCE0FC533682B60164B1B68B3F93620079B1344ADF83030089B0D93A26AE16A0CAD00953B460A98FFF75EFF00210091069B0A460598FFF757FF216B284600F021
:4010400067FABDF93030002B08DB590903F01F03012202FA03F3044A42F821300FB0F0BD6C6308109C87020800E100E0F8B506460F461D4614461AB9FD211F4800F0A6FA52
:401080001E4B1B681BB9FE211B4800F09FFA1B4B1B682C2101FB063001FB07314B68012202FA03F31B04466802FA06F60269EAB18F69EFB91268002A01DA002200E0104ABB
:4010C000C2B92288134323600369DC6001238B614D620469330C1B0423B140F2BB21094800F074FAB2B2A2600020F8BD0648F8BD0648F8BD0548F8BD6C630810247802085F
:4011000001008A00EC62081004028A0007028A00F8B505460F4616460E4B1B6823B94FF4AF710D4800F052FA0A4B1B682C2404FB0534236A23B94FF4B171074800F046FA99
:40114000E369B34204D9236A43F826700020F8BD0248F8BD247802086C6308100A028A0070B582B000230193044620B940F2D111284800F02BFA236923B94FF4E9712548C0
:4011800000F024FA636923B940F2D311214800F01DFA236A23B94FF4EA711E4800F016FA6369DD682A0C20D012041A601B682069194B1B68D3F8B430C358002B15DA01A93E
:4011C000FFF73EFD60B9019803681E0CDBB2E269934206D2226A52F8233013B1984700E0002631462069FFF7EFFCADB275B16369ADB21D601B68636A1BB19847002363622F
:4012000002E0A36A03B198470023A36163691B6802B070BD6C6308109C87020810B50446074B1B6823B940F2B111064800F0CEF9034B1B682C2000FB0430FFF791FF10BD6B
:40124000247802086C63081010B50446094B1B689B6CC34013F0010F03D1BE21064800F0B5F9044B1B681B691034A402185900F00F0010BD9C870208AC63081010B504465F
:401280000D4B1B6893F83C30834204D84FF4A1710A4800F09BF904F1D003094A52F8230000F00700042806D1C03452F8240000F01F0040F4807010BD9C870208EC63081018
:4012C00000002640B0F5C26F80F09B80B2F5C26F80F09980B1F1807F80F09780F0B401244C4B1C70FF2805D800F00F000F26374607231DE0B0F5A06F05D200F00F030F2614
:401300000027384614E0C0F30325B0F5C06F07D20001C4B245EA0403FF260027384607E0030203F470632B4340F60F7600273846FF2A09D81201D2B2104343F4E02347F02C
:40134000F00746F4702620E0B2F5A06F06D2120402F47022134346F4702616E0140A240404F470241C43B2F5C06F06D2130503F47003234346F47F0607E0120602F0706314
:40138000234346F0706646F47026234A1268156AB2F8B020C2EBC202AA58002AF5DA1D4A527822B11D4AD2F81C25002A1DDA41F61F741B4A146043F63D54043A1460A2F552
:4013C0008272D2F8184524EA07073843C2F81805D2F8140520EA06063343C2F814350D4B5960C2F81C15002000E00E480A4B1A68116AB2F8B030C3EBC3030B4400225A6025
:4014000005E0084870470748704706487047F0BC704700BF287802089C870208000026400801264001004A0070B505460022214B1A70214B1B681A6AB3F8B030C3EBC303A2
:40144000D418D358002BF4DA1C4B1A6841F61F739A4207D11A4B1A6843F63D539A4203D0002602E0002600E00126164BD3F8202522F07F4000226260D6B1D0B165B90D4BBE
:401480005E684408002502460023E1FB06452046294604F04BF870BD064B5A68540800250023E1FB00452046294604F03FF870BD002070BD287802089C8702080801264092
:4014C000040126400000264038B50D4B9A680D4B9A420FD10D46044621B940F237110A4800F074F804F11003064A52F8230042F8235038BD1030054B53F8200038BD00BF0B
:4015000000ED00E000400208746408100000081048B338B504460D464368072B03D93221134800F053F8B4F900306268002B08DB5201D2B203F1604303F5614383F8002308
:4015400005E003F00F035201D2B20A49CA540A4B9A680A4B9A4208D12946B4F90000FFF7B3FF002038BD06487047002038BD00BF7464081014ED00E000ED00E0004002083E
:401580000100560010B5044605E0084B186800F087F8A4F50044B4F5004FF6D8044B186800FB04F000F07CF810BD00BFA8420208A442020808B5034B1B7800FB03F000F0ED
:4015C0006FF808BDA042020801BEFEE738B50D46044C18220146204604F082F9A5610020FFF7F2FFB84C0208024B1B685B6801229A6070479C870208FEE700BF08B50268CF
:40160000254BDA6142681A6282685A62C2689A620269DA6242691A6382695A63C2699A631E4A916AD963D16A1964516A5964516B9964926BDA64F1EE103A13F0900F27D0E9
:40164000026A154B1A65426A5A65826A9A65C26ADA65026B1A66426B5A66826B9A66C26BDA66026C1A67426C5A67826C9A67C26CDA67026DC3F88020426DC3F88420826D27
:40168000C3F88820C26DC3F88C20026EC3F89020FFF7B2FF08BD00BFB84C020800ED00E00230800803D001300238FCD100BF00BF7047EFF3108072B6704780F31088704743
:4016C0004FF0B0539B899BB223B14FF0B0539B899BB201E04FF48073B3F5807F15D1174A13681868D3F89810435823F00F0343F00203435013681968D3F89C208B5823F039
:401700000F0343F002038B50704710B40B490B681C68D3F898000A4B1B6823F440732258134343F4407323500B681A68D3F89C3004490968D1505DF8044B70479C87020899
:4017400048180016441800164FF0B0539B899BB223B14FF0B0539B899BB201E04FF48073B3F5807F15D1164A13681868D3F89810435823F00F0343F003034350136819684D
:40178000D3F89C208B5823F00F0343F003038B50704730B40A4803681D68D3F8984009490B6823F440732A59134343F440732B5103681A68D3F89C300968D15030BC70477F
:4017C0009C870208201800164FF0B0539B899BB223B14FF0B0539B899BB201E04FF48073B3F5807F0BD10D4B1B681968D3F898208B5823F4E04343F4C0438B507047074B80
:401800001B681868D3F89810054B1B6823F440734258134343F44073435070479C870208181800164FF0B0539B899BB223B14FF0B0539B899BB201E04FF48073B3F5807F06
:401840000BD1114B1B681968D3F898208B5823F4E04343F480438B50704730B40A4803681D68D3F8984009490B6823F440732A59134343F440732B5103681A68D3F89C30E5
:401880000968D15030BC70479C8702084C18001608B54FF0B0539B899BB223B14FF0B0539B899BB201E04FF48073B3F5807F17D10E20FFF7C9FC4FF0B0535B7813F0FF0FA0
:4018C00004D04FF0B0535B78DBB200E02123222B02D818B9012008BD012008BD002008BD012008BD10B50446012804D940F262710F48FFF76BFE1CB90E4B5869C00F00E051
:4019000000200D4B1B6893F844307BB1012C0DD1084B9B6913F0804F05D1064B9B69002B03DA012010BD012010BD002010BD00BFB8640810000026409C87020838B5154B7E
:401940001B6893F8443023B30D460446072804D940F2CC711048FFF739FE0E4B1B6893F8443023B10D4B9B6903F0070300E00023DBB29C420DD00948826922F0070104F0D5
:4019800007020A43826125B19C4202D9C820FFF711FE38BD9C870208B86408100000264010B30246C3680BB303680BB330B40579114B03EB85035C682346002103E093425F
:4019C00005D019465B69002BF9D1012000E0002080B124B9084B03EB85056A6000E04A6111610023536105E000207047002070470020704730BC70473478020850B310B4D8
:401A000002460479164B03EB840359680B4602E0934204D05B69002BFAD1002000E00120D0B18A420ED14B6933B10D4A02EB8404636000221A610FE0094B03EB84040023C7
:401A4000636009E01A69596951615A6922B11B69136101E0002070475DF8044B704700BF3478020830B583B004460D46022808D9042806D0032804D040F6B2112848FFF78D
:401A8000A5FD6B1EDBB2012B08D9042D06D0082D04D040F6B3112248FFF798FD214800EB84004468042D12D0012D1AD111E0A3681D420AD1E3681A6800925B68019323683B
:401AC000294668469847174B9C61646902E0002000E0002014B3144B9842E8D1012DE6D11CE0022D01D104E01C466369002BFBD103E00C4B9C6904B1246900200CE0A36880
:401B00001D4208D1E3681A6800925B68019323682946684698472469002CF0D103B030BDB864081034780208FF00420070B50546012804D94FF4E0711D48FFF747FD1D4BDA
:401B40005B682BB101210020FFF78CFF044600E000242CBBFFF7ADFD0646164B5B681BB104210020FFF77EFF134A136923F004031361012D01D030BF07E020BF0D4B1B7834
:401B800003B120BF01220B4B1A703046FFF795FD084B5B684BB108210020FFF763FF04E002210020FFF75EFF044C204670BD00BFB86408103478020800ED00E0FF004200CA
:401BC00008B5FFF776FD074B5A6807490A4042F468525A605A68114059605B68FFF76DFD08BD00BF00002640FF00FC0FF8B50546012804D940F64C213948FFF7E7FC4FF04A
:401C0000B0535B7813F0FF0F04D04FF0B0535B78DBB200E021239CB24FF0B0539B899BB223B14FF0B0539F89BFB201E04FF480770E20FFF709FB98B9B7F5807F12D1222C03
:401C400012D8284B1B6858684FF21801435823F080722B0603F0807313434350002604E0214E02E0204E00E01F4EB7F5807F01D1222C02D8B7F5807F2FD01A4B1B6893F8F2
:401C80003130012B04D840F2C3111848FFF79EFC144B1B681C6AB3F8B0301C44B7F5807F02D125B1124A05E01DB1124A02E0124A00E0124A01212046FEF7A4FF68B9094BA4
:401CC0001B68D3F8B4301B59002BF8DBE36803F07F43B3F1204F00D100263046F8BD00BFB86408109C870208040042002C620810010100300300000C010000300100000C80
:401D000070B50446022806D0052804D040F202711E48FFF75BFCFFF7BBFDA0B3FFF7C9FC0646022C07D10120FFF760FF054678B9FFF7C6FC0CE0164A536923F0070343F0CB
:401D4000030353613420FFF735FCFFF76BFD0025ADB90F494B6923F0070204F0070313434B61022C02D1FFF72FFD08E09120FFF721FCFFF7E9FC0020FFF738FF0546304665
:401D8000FFF79BFC00E0034D284670BDB86408100000264003004200F8B50446012804D94FF402612A48FFF711FCFFF771FD00284AD0FFF77EFC07468CB9002147F630732B
:401DC000244AD1504FF0B05393F84067F6B20120FFF70CFF0546D8B9FFF772FC18E01E4B19681C4A47F63073D1504FF0B05393F84167F6B24FF61C71535823F01F0343F08B
:401E00000B0353500320FFF7D5FBFFF70BFD0025B5B910494FF61C728B5823F01F0306F01F061E438E5014B9FFF7CEFC08E00720FFF7C0FBFFF788FC0020FFF7D7FE0546DC
:401E40003846FFF73AFC00E0044D2846F8BD00BFB8640810000026401018001603004200014B1860704700BF9C87020838B50D4640F4004000040E4BD8614FF47A7403E0C3
:401E8000013C0120FFF796FB094B1B6C13F0010F01D1002CF4D144B1054B1A6C42F001021A64DB6A2B80002038BD024838BD00BF00003C400400160010B50F4B03EA004029
:401EC00001430E4AD1614FF47A7403E0013C0120FFF770FB094B1B6C13F0010F01D1002CF4D134B1054A136C43F001031364002010BD034810BD00BF0000FF7F00003C4071
:401F00000400160070B582B005460A244FF4C05141F60260FFF7D0FF034630B90DF1060141F60260FFF7A2FF03460CB1013C00E0714B23B9BDF80620B2F5C05FE6D13BBB95
:401F40000DF1060141F60360FFF790FF0346F8B9BDF8062002F4806292B2CAB90A244FF4806141F60360FFF7A7FF034630B90DF1060141F60360FFF779FF03460CB1013CBF
:401F800000E05D4B23B9BDF80620B2F5806FE6D133B90DF1060141F60960FFF767FF0346002B43D1BDF8063023F03F039BB2AA78012A12D1E978012904D88EB2C6F1020201
:401FC00094B201E00024022643F07003ADF806304A4BCB404A4A136012E0E97821B98EB2C6F1010294B201E00024012623F0400343F01003ADF80630424BCB40404A1360A1
:40200000BDF80610314389B2ADF8061041F60960FFF752FF0346EA78961B06F00306A20092B23243ADF8062037494A664FF0B052527812F0FF0F04D04FF0B0525278D2B255
:4020400000E02122212A53D0304A128892B2002A4ED033B90DF1060141F60760FFF706FF034643BBBDF8063023F060039BB2ADF8063026490A88C2F3811243EA421323F4F3
:4020800028639AB2ADF806200B889BB2DB0103F4F063134323F4C0539BB2ADF806300988C1F3012143EAC121ADF8061041F60760FFF702FF034633B90DF1060141F6066033
:4020C000FFF7D4FE03469BB9BDF8061021F0C0018BB2ADF806300D4A1188C1F3011143EA8111ADF8061041F60660FFF7E5FE0346184602B070BD00BF040016000048E80190
:402100008C4202080024F40000F03D401618001638B50D4641F2010141EA400141F60860FFF7CAFE044630B946F6370141F60F60FFF7C2FE04466801FFF73CFA204638BD83
:40214000024A136F43F010031367704700F03D4070B59CB0134C13AD26460FCE0FC50FCE0FC533682B600AAD04F124060FCE0FC50FCE0FC533682B6001AD48340FCC0FC5F2
:402180000FCC0FC523682B6013A90748FEF732FC0AA90648FEF72EFC01A90548FEF72AFC1CB070BD68660810000132408001324000023240F8B5002800F0E7800546774B08
:4021C0005B6813F4003F01D0FFF7FAFC744C03E0013C0120FFF7EEF9724BDB6E0BB1002CF6D1704BD3F8A03013F0010F06D06D4BD3F8B43013F0010F40F0C980694BDB6E57
:40220000002B40F0C680FFF7A3FF674901F5F833664AC3F8A4202A7842F42022C3F8A8204FF00112C3F8AC20D1F8003113F0010F40F0B1805B4B1B6F13F0080F0AD15C4BB5
:402240001B685C4A934207D95B4AA2FB03231B0D013B02E0012300E00023534A12681BB1564941EA433300E0554B13434E4A13604A4B5B6913F0804F13D001210320FFF75E
:402280005DFB464B5B69C3F380734E4A126892F844206AB163B1414A936943F08043936106E0404AD2F8C43043F00303C2F8C4303C4CD4F8A07047F4403343F03003C4F8DF
:4022C000A0304020FFF776F9D4F8B03013F0010F0BD10123C4F8B0304020FFF76BF90323C4F8B0304020FFF765F927F4803727F0100747F4003646F020062A4BC3F8A060C1
:402300004FF4FA6403E0013C0120FFF753F944F210032D4AD35813F0100F01D1002CF2D10CB1002400E0294C1CBB1E4A936E43F0080393660120FFF7D5FA18B947F40036D6
:4023400046F0280626F4802343F00103154AC2F8A030134E03E0013E0120FFF72BF9114BD3F8B43013F0010F01D1002EF3D106B9164C1CB92846FFF7C5FD044664B9297858
:402380006878FFF7C5FE044606E0114C04E0114C02E0104C00E0104C2046F8BD00002640F07E0E0000F03D4000003C40060000019442020800093D0083DE1B43041A0080CC
:4023C000040A00809C8702080000324004001600010016000300160002001600014B1868704700BF8C42020810B5002405E02046FEF744FF032804D00134042CF7D9002074
:4024000010BD012010BD00BF074BD3F8003503F00303012B03D0032B03D101207047012070470020704700BF0000264038B5012902D0082942D047E0284B1B78012B45D090
:402440000320FEF729FD264B984241D0FFF7CCFF01283FD0022005F0CFFC0546FFF729F9204B186027F084F80446062815D0022D09D1022013F032FE032C01D0052C0ED143
:4024800078B1194C12E0012013F028FE022C0AD058B9FFF74BFB144C08E0002406E0124C04E0002402E0104C00E00F4C0E4B9C4211D10C4B1868FFF700F90CE0094B18682D
:4024C000FFF7FBF8002406E0074C04E0064C02E0054C00E0044C204638BD00BFA48702080101880070780208FF00420008B50248FFF784FA08BD00BFAC420208B0B110B5D4
:402500000B4A5060C36A03B193600024094B1C70094B1C70094B1C60094B1C7000F09CFB084B1C70084B1C70204610BD0748704770780208B8870208BC870208C0870208D7
:40254000BD870208A3870208A88702080100160070B59AB03F4D15AC28686968AA68EB680FC4286920604C22002102A803F084F9394B029315AB049342F61013ADF81430C6
:4025800005238DF81630354B5B681B69069341F2960307931B23ADF82030ADF8223003238DF8243004238DF8253006238DF8263010238DF827308DF828308DF829307223D5
:4025C000ADF84C3001238DF850302548FFF7E8F905F00BFC08A805F073FC0346002836D1204B03931D4B5B68996B89B10B460DF12A0220311E685D689C68D86816605560D5
:402600009460D060103310328B42F3D11B88138002A805F0FDFB0346B0B90122124B1A700023124A1370124A13700C4B5B681A6A00929B6ADB88ADF804300A23ADF806307D
:4026400068460DF075FC034600210A4A116018461AB070BDD46608102530081070780208AC4202084C4D0208A4870208AC870208AD870208C0870208014B9867704700BFAC
:4026800000F03D4008B51AF06DFC034B1B680BB100B1984708BD00BF7C78020848B108B5B1F5FD7F07D20A46044903F0DAF8002008BD03487047024808BD00BF07080016F1
:4026C000010016002DE9F04FADF5077DB1F1805F03D38D189D4CA54210D9B1F1A05F03D38D189B4CA54209D99A4CA14240F20F818D1804F20124A54200F20E810493174620
:402700000E468046944B5B6913F0804F10D0924B5C6904F00704022C24D10520FFF7F0FA00908E4B9842F8D002940123039323E04FF61C73884AD35803F01F034FF0B052DC
:4027400092F84027D2B2D31A18BF012303937BB90120FFF721FB814B9842F9D000900523029309E00294012303930023009303E00523029300230093794B009A9A4204D1EF
:4027800040F2D5117748FEF721FF06F17046730A01935C0200210320FEF7F6FA0028F9D10546824683E0B44213D3BD4211D218F805200DF1180E0EF8032041B904F180527F
:4027C0001278D2B218F805E0724500D00121013506E004F1805212780DF1180E0EF803200134013301E000210B46B3F5007FDAD3002959D0009B002B56D1049B002B48D1C1
:402800004FF0C80B05955D46DDF804B00BF500294FEA49294846FEF743F88246013D0120FEF7C8FE0AF4A403B3F5A40F01D1002DECD1059D4C4B9A4505D1FEF72DF84B4BF2
:402840009842FAD08246BAF1000F17D14FF0C80B5B46A3461C4606A94846FEF773F88246013C0120FEF7A6FE0AF4A403B3F5A40F03D1002CEFD15C4600E05C463A4B9A45A8
:4028800011D1FEF709F8394B9842FAD0824601200AE0019B03F5002006A94002FDF7AEFF8246012000E00120019B01330193009B23B9BAF1000F01D1BD4294D308B1FEF79A
:4028C00093FE00210320FEF7A3FA0028F9D1009B33BB214B5B6913F0804F09D0029B022B06D10220FFF70CFA00901C4B9842F8D0194B1B6813F4000F12D1039B83B90020E9
:40290000FFF74AFA0090154B9842F8D008E000230093DFF86CA003E000230093DFF860A0009B63B9124B9A450BD004339A4508D0BAF1000F01D1002004E00E4802E00E4800
:4029400000E00E480DF5077DBDE8F08F0000101000800014FF070016000026400400420003004200E8670810010050000200500002005200130016001200160001001600F0
:402980000600520048B108B5B1F5FD7F07D20A4601230449FFF796FE08BD03487047024808BD00BF070800160100160070B5C0B006460C4615464FF480720849684602F03E
:4029C00050FF05E016F8012B6A401DF80250013C002CF7D1284640B070BD00BFE866081008B50022FFF7E2FF08BD00BF002070470288AE2303FB02F3A3F26F33024AA2FBF8
:402A00000323DB080B807047CDCCCCCCB0F9002042F64B0303FB02F3044A82FB0302DB17C3EB2233C3F1BD030B807047AD8BDB680020704708B513F081F908BD08B5FEF75A
:402A4000B9FD08BD084B1B685B6BB3F90030002B08DB590903F01F03012202FA03F3034A42F82130704700BF7478020800E100E00A4B1B685B6BB3F90030002B0DDB5A09D4
:402A800003F01F03012101FA03F32032044941F82230BFF34F8FBFF36F8F70477478020800E100E0024BD3F8000500F00300704700002640024BD3F81C05C00F704700BF6B
:402AC0000000264008B5FEF7AFFC08BD70B504460D4616460320FEF7DFF9054B984205D0324629462046FEF7EDFB70BD014870BD0101880003004A00431A002BB8BF5B4201
:402B000093422BD310B4194BD3F83C35C3F30903884207D9411A01EB5201B1FBF2F29A1A0FD50AE0091A01EB5201B1FBF2F21A4440F2FE318A4202D803E0002201E040F2D7
:402B4000FF320A4CD4F83C1521F47F7121F00301C2F309000143C4F83C1502E00023D81A7047981A5DF8044B704700BF0000264008B5034B1A684FF40041FFF7BDFF08BD20
:402B8000C442020810B5FFF7E3FA0220FFF774FD0A4C23680A49586BFEF7BAFC23685B6BB3F90030002B08DB590903F01F03012202FA03F3034A42F8213010BD74780208E0
:402BC0008526081000E100E00420704708B5FEF770FD08BD08B5FEF770FD08BD08B5FEF7A5FF08BD08B50021FEF7A8FE08BD00BF704700BF704700BF0020704700487047D4
:402C00001100160000487047110016000048704711001600004870471100160000487047110016000048704711001600004870471100160000487047110016000048704764
:402C40001100160000487047110016000048704711001600704700BF08B5024800F078FD08BD00BFF8430208F8B5022872D8002972D10022134606E03B4CE45C012C01D97A
:402C80000132D2B20133002BF6D0012A0CD1374B1B681C6801EB8102930023445B681B79023BDBB2012B59D8314B1B78002B57D1304B1970E0B92D4F3C68236801EB8105A4
:402CC000AA009D186668C1EBC1014B001E44B18829822168114449686468E45A0C8039680C682244526849680B445B8853801EE001281CD11D4F3C68236801EB8105AA00CD
:402D00009D186668C1EBC1014B001E44B1892982216811444D68616819440989298039680C682244526849680B445B895380124B18700E4B1B6818680E4B1B7803EB83038F
:402D40009A00104408F084FE034650B90121084A117006E0094B04E0084B02E0084B00E0084B1846F8BD00BFAC87020874780208AD870208A2870208BD87020801001600F0
:402D800002001600FF00160070B439B9144B1B681B689968CE7F00231D460EE0104B1B681B68D968CE7FF6E7CA5C52B10133CC5C1B2C01D0134400E00125B34201D2002DEE
:402DC000F2D05DB101338279CA54002204E0D4180134855C0D550132052AF8D970BC70477478020870B504460DF0BCF8054620BB134B1968086A228902EB82029300143BAB
:402E000003445A6812F0007F17D0E67B1B695A68CB69D21A06EB8606B318A28821680948184402F01EFDE37B074AD35C012B04D1064A137843F002031370284670BD00BFD6
:402E400074780208B0870208A8870208A387020830B587B002891A4B1B685B699B889A4229D1044601AB07C883E807000022ADF81020A289ADF8122040228DF814201846B9
:402E8000FFF7B0FF054680B923681B7803F002039BB22BB10B4B1B6821460B48984704E0084B1B68214609489847094A137803F0FE03137000E00025284607B030BD00BFBC
:402EC00074780208787802080500010006000100B88702084288531E9BB2132B1AD84178D1B910B40F4B1868046A02EB82029300143B23445A6812F0007F0FD01B695A6863
:402F0000C369D31A01EB81011944074B5B5A1380002004E0012070470120704700205DF8044B704774780208B087020800B583B00023ADF804308389ADF800300389ADF8B7
:402F4000023012238DF80430084B1B7813F0010F09D129B18DF8051068460CF01FF902E0C0680CF049F903B05DF804FBB887020810B4044688B10023194606E0104A52F83D
:402F80002320944200D1012101330D4A1279934206D20029F2D0002003E00021094800E0002050B949B9064B1B792BB9044A42F823400133137100E003485DF8044B7047E5
:402FC000C4870208010016000300160070B506460D460020044606E0084B53F824302946304698470134054B1B799C4204D2044B1B7813F0010FEFD170BD00BFC4870208BF
:40300000B887020883792BB100207047C25C32B9013300E00023052BF8D9002070470120704700BF70B58CB004460D46BF4A137843F00103137044F20803984200F04C82C4
:403040003CD842F20403984200F0F08019D841F20203984200F0178108D8B0F5805F79D041F20103984200F00B8157E341F20303984200F0418141F20403984200F0498333
:403080004CE343F2190398425BD00AD843F20103984200F0BC8043F21203984200F0B7803CE344F20603984200F01A8200F2CD8144F20403984200F032812FE345F20C0309
:4030C000984200F0DD821BD845F20103984200F046820AD844F20A03984200F0B38144F21003984200F0B18118E345F20203984200F0808245F20303984200F0B7820DE34C
:4031000045F21003984200F0F6820AD845F20E03984200F0EA8245F20F03984200F0E882FCE245F21703984200F0EB8246F20103984200F0118245F21403984240F0EE825F
:40314000DCE2084605F000F8784A137803F0FE031370E3E2764B1E683046FFF753FF60B1304609F063FC724E00213068FFF70CFE01213068FFF708FE37E06E4B1A68936A6B
:403180001B791BB34FF0B05191F8043603F03F0391F8050600F03F0043EA801391F8030600F01F0043EA003391F8001601F07F0143EA4143126B13705E4A1168096BC3F3E5
:4031C000072048701268126B1B0C9370594E3368186B09F02BFC33680021186BFFF7D4FD33680121186BFFF7CFFD524B1B68986A02300AF031F8504A05AB1068516803C32A
:4032000005A809F037FC02224C4B1A7086E200234A4A13704A4A13704A4A137043F212039C4240F07B82FFF761F977E2464B1B6813F0010F40F072820023ADF814308DF8C6
:4032400016303C4E33689B6A93F900308DF8143005A809F029FC33689B6A93F901308DF8143001238DF81530FF238DF8163005A809F01AFC344A136843F0010313604DE2FF
:40328000FFF7A4FE4AE24978304B1B88ADF81430002319E02E4A32F81320ADF808209DF8092012B92B48825C00E00022012A0AD9274A12F81320914205D1254A32F81330A7
:4032C000ADF8143002E00133002BE3D09DF81530FF2B05D104D140F2CA311F48FEF776F9BDF81430ADF82030ADF81C30C3F3072329781A4AD15411E20B78002B40F00E8200
:403300000B7A33B9164B0022DA809A80154A1A604B60064A137803F0FE031370FEE149790A4B1B88ADF81430002337E0B8870208C84202087478020824680810A487020867
:40334000AD87020894780208C08702082C680810A0870208AC87020830680810BC8702089C7802085C760208AF4A32F81320ADF80C209DF80D2012B9AC48825C00E000220F
:40338000012A0AD9A84A12F81320914205D1A64A32F81330ADF8143002E00133002BE3D09DF81530FF2B05D104D140F2CA31A048FEF70CF9BDF81430ADF82430ADF8143054
:4033C000C3F3072369789B4AD154EB78002B40F0A5816979984B1B88ADF81430002319E0914A32F81320ADF810209DF8112012B98E48825C00E00022012A0AD98A4A12F871
:403400001320914205D1884A32F81330ADF8143002E00133002BE3D09DF81530FF2B05D104D140F2CA318248FEF7D0F8BDF81430ADF82830ADF81430C3F3072301217F4A87
:40344000D1546BE1FFF7C2FD68E1AB7E002B3FD12B7E012B02D10022794B1A70E97E764B1B88ADF81030002319E06F4A32F81320ADF814209DF8152012B96C48825C00E09F
:403480000022012A0AD9684A12F81320914205D1654A32F81330ADF8103002E00133002BE3D09DF81130FF2B05D104D140F2CA315F48FEF78BF8BDF81030ADF82C30ADF8BD
:4034C0001030C3F30723FF2B02D0297E5D4AD15402225D4B1A7021E102225B4B1A701DE1FFF774FD594B1B7813F0010F00F01681534B1B78012B03D10222514B1A700DE1F2
:40350000032B03D100224E4B1A7007E1022B40F0058100224A4B1A704D4B1B685B684D4A1178C1EBC10203EB42039A79002A00F0F5809B88002B00F0F180474B1B78002BF7
:4035400040F0EC800120FFF78FFB002840F0E68001223B4B1A70E1E0FFF738FDDEE00B88ADF800309DF801301BB902212F4AD15405E023B940F286312D48FEF727F86A789B
:403580002988294B23F812106B780021334AD15403EB8302324E91192D4B1B6818692B7803EB830303F584531033034453F8060F90511B790B71687800EB80000421304445
:4035C000FFF70EFA6B7803EB830333441B7998420BD0244B1B680021234898476B7803EB8303981900229A51027129462046FFF7EDFC93E00B88ADF804309DF805301BB9A0
:4036000000210A4AD15405E023B940F286310848FDF7DCFF6B780021084AD15429462046FFF7D4FC7AE000BFA0870208AC87020830680810A88702082C68081094780208DF
:40364000AD87020898780208A4870208B887020874780208A2870208BD870208BC870208B087020878780208040001000B88ADF814301723ADF8163005A80BF09BFD4DE062
:403680000846FFF7E5FB014620B929462046FFF79DFC01462846FFF749FC294B1B7813F0110F04D0274B1B682946204698472A89234B1B7813F0010F11D0531E9BB2132B27
:4036C0000DD912238DF81830ADF81620AB89ADF8143001238DF8193005A80BF05FFD184A137803F0FE03137018E0FFF76FFC15E0FFF76CFC12E0FFF769FC0FE0FFF766FC50
:403700000CE00846FFF7E6FB29462046FFF75EFC04E00D4A137843F001031370084B1B7813F0110F09D0064A137803F0FE031370044B1B682946204698470CB070BD00BF71
:40374000B887020878780208A38702080020704730B108B5034A10600348FFF709FC08BD02487047A87802084D3708100100160008B518B1094AD062002000E0084858B94B
:40378000084B1B782BB90548FEF7B8FE0122054B1A7008B9FEF7DCFE08BD00BFCC42020801001600AC78020808B5074B1B7833B900F024F900F074F90122034B1A7000F0F6
:4037C0003DF800F095FC08BDD478020810B5FFF7EBFF044610B900F0D3FB044614B900F003FB044600F0B2FA0028FBD100F0DCF900F0A2F9204610BD70B50E4D0026344600
:4038000014E0630904330C4A52F8233004F01F02D34013F0010F07D0284600F061F806462946204600F0B8F820350134002CE8D0304670BD706A0810CC87020870B50023CC
:403840000AE0124A191D02EB8100002444604FF0FF3042F821000133002BF2D00C4C01230FE06668A27E094B2B4400211976012A05D1206918B1228BF17901F0FDFF203435
:403880002B465D1E002BECD170BD00BFCC870208706A081010B582B004460846638802A921F8083D1346228A01F0E8F9BDF8003063809DF8023023719DF8033063719DF84B
:4038C0000430A37102B010BD30B40B884A889C1A0025CD800079844200DDCC8030BC70472DE9F04780468468476890F81AA0C6690025A94616E03246398A208801F0E6F9A9
:403900002A4631463846FFF7C5FF0C3652462146384600F057F9814621463846FFF7D4FF0A340135B8F818309D42E4D34846BDE8F08700BFF0B50C8B8D684F680A6901230A
:4039400024E010EA030403D17E88B979314402E07988BE79891BEE88B14201D3002100E01946A14202D01678013E1670A14201D014783CB920EA0300084309B9F97900E0BD
:40398000012111705B000A350132744604F1FF3E002CD6D1F0BD00BF38B504468A7E154B03441D7E012A04D12846FFF7C3FF054604E040F226411048FDF708FE0D4B2344EC
:4039C0001D76620904F01F04012303FA04F445B90432084B03EB8202536823EA0404546038BD0432034B03EB820253681C43546038BD00BFCC8702083C6A0810F8B51C4E7D
:403A000040220021304601F037FF40F2944333804FF41063738041F66A03B3800823738301243477134D06F11E0E05F124070FCFC6F81E00C6F82210C6F82620C6F82A30CF
:403A40003B88F3852946043523460CE0AA682B8B04E011F8013B53720A320346581E002BF7D1203523465C1E002BEFD1F8BD00BFCC8702086C6A0810034660B900F01F0017
:403A8000012202FA00F05B090433044A02EB83035B68184070470020704700BFCC8702080023024AD380024A13607047CC870208E8780208C9B2062902D083180021197115
:403AC00030F8121000EB42035980024400231372704700BF70B506460D46012305E0224629463046FFF7E6FF23465C1E002BF6D170BD00BF08B5064B03EB4013986801EB1E
:403B000081014A00997E1044FFF7E4FF08BD00BF706A081038B50546064B03EB40131B8B04E021462846FFF7E5FF23465C1E002BF7D138BD706A081010B5012303E020460D
:403B4000FFF7E8FF23465C1E002BF8D110BD00BFF8B505460D4B03EB40135E681B8B10E00A4B03EB45139F6804EB84025000DA6904EB44018B001A44318A385A01F09AF881
:403B800023465C1E002BEBD1F8BD00BF706A081010B5012303E02046FFF7DAFF23465C1E002BF8D110BD00BF08B5FFF7F1FF08BD00FA03F3C2F5807001FB00F102FB031075
:403BC000000A70472DE9F04106460D461746012342E035F8140005EB44035988884207D3431A2A194FF0000E82F808E0012201E00B1A002292B996F805E073450ED92B1943
:403C00001B7A327A934205D3224639462846FFF751FF20E02A19013313721CE096F804E0734504D996F805E0734514D89AB9FBB2062B10D005EB040898F804E00823012216
:403C40004EEA0121FFF7B4FFC0F30F2205EB44035A8088F8040023465C1E002BB9D10020BDE8F08130B49F280ED940F2FE3399420AD9244CA1FB04454B1B05EB53035B0AE1
:403C8000C3EB832399422FD09F280DD9B1F5FF7F0AD91D4CA1FB04454B1B05EB53031B0AC3EB4323994221D09F280CD97E290AD9164CA1FB04454B1B05EB53039B09C3EBA8
:403CC000C313994214D09F2814D93E2914D9104CA1FB04454B1B05EB53035B09C3EB831399420BD000200AE0042008E0032006E0022004E0002002E0002000E0012030BCA8
:403D0000704700BF051040002140800011080402054110044A1E032A01D8102300E0002379B183B1642202FB03F3B3FBF0F3002001E001305B00092BFBD90A2B04D9013872
:403D400002E0002000E00020C0B27047024BD86800F08000704700BFCC870208034B0340034AD0681843D060704700BF80000100CC870208034B0340034AD06820EA030030
:403D8000D060704780000100CC87020810B50E4BDB6813F4803F0DD170B9430904330A4A52F8233000F01F02D34013F0010F05D1012404E0112402E0012400E000240CB981
:403DC00000F0B8FD204610BDCC87020808B5054BDB6813F4803F03D100F000FD002008BD112008BDCC8702080F4BDB6813F0800F14D110B500244FF0FF330CE02046FFF7C9
:403E0000C5FF034630B90022084B1A70FFF7DEFF034606E00134002CF0D002E0112318467047184610BD00BFCC870208EC78020830B583B00025074C08E0217900230093C2
:403E40000E222068FCF744FE08340135002DF4D003B030BDA46A0810704700BF10B50146124BB3F90030002B0DDB5A0903F01F03012404FA03F320320D4840F82230BFF3EA
:403E80004F8FBFF36F8F094C2046FDF741FBB4F90030002B08DB590903F01F03012202FA03F3034A42F8213010BD00BF1C62081000E100E070B5002510E06B01094AD65830
:403EC000002404E006EBC40000F0CCFC0134054B03EB45131B7E9C42F4D30135002DECD070BD00BF706A0810024B03EB4010436858897047706A0810024B03EB4010436851
:403F000059817047706A0810C0EB0032012303FA01F101398A4205D9C0EB0020814203D30520704706207047002070472DE9F04180460E46FFF7D8FF07460022318800F0F0
:403F40008FFB01463846FFF78DFE054620B931887800FFF7D9FF054629463846FFF7DAFE04466B1FDBB2012B03D839464046FFF7C3FF2001C0B228433073BDE8F08100BFAD
:403F8000F0B589B04FF47A73ADF8003040F65503ADF802304FF41663ADF80430454B1A7F4CF25033B3FBF2F3ADF80C3000252E4644E0414B03EB45135C680C23238000237E
:403FC0002373BDF80C303D4AA2FB03235B09274627F80A3F5521284600F072FD0497384B1B788DF81830374B1A884FF47A7303FB02F2354BA3FB0213D21A03EB5203C3F398
:40400000CF23ADF80E30684600F0E0FD2F4B984203D9062601E05B006381BDF80C10638941F2707202FB03F29142F4D8032BF2D908AB03EB850343F8040C0135002DB8D0F9
:40404000002420E01C4B03EB44135D685521204600F036FD064305F10A03049308AB03EB840353F8043C0293154B1B788DF81830EB89ADF8063005F110030593684600F033
:40408000CBFD28800134002CDCD000240CE00A4B03EB441359682046FFF748FF5521204600F00EFD06430134002CF0D0304609B0F0BD00BFCC870208706A0810F1197605C5
:4040C000004402080244020801011000870D010010B5002407E0054B03EB441359682046FFF724FF0134002CF5D010BD706A081008B5FFF7EDFFFFF79BFE00F0E7F90020D3
:4041000008BD00BF38B5114D2A689369104CE31ADB09526902EB03135A6822F0F8525A60802363602B6893F87D20135923F0704343F0C04313510120FDF73CFA2B6893F8F9
:404140007D20135923F07043135138BD9C870208800332400E4B1A780E4B03EB42135B680D4AD2F8D02091B2188801238340013B994206D2094B1B680949097823F81120EB
:404180007047064A12680649097822F811307047EE780208706A0810000036400C880208AC6A081038B520490A78204B03EB421250680A7803EB42131A7E013A1C4B1B7829
:4041C000DBB29A421AD91A4C23780133DBB223700D460A78154B03EB42139968237803EB83035A000A44134B1A6000F011FA2878217800F027FB00F073FA38BD00220C4BF5
:404200001A704FF48030FFF7B5FD0B4B1B78012B02D1FFF721FE38BD8020FFF7ABFD074A13890133138138BDEE780208706A0810ED7802080C880208EC780208CC87020845
:4042400008B5074B4FF483721A601B68FFF782FF044A1389013313810348FFF78BFD08BDF0003640CC8702088000010010B50B4B1B785B010A4AD3580A4A147803EBC404E0
:40428000094B4FF483721A601B68FFF763FF204600F0E8FAFFF786FF10BD00BFEE780208706A0810ED780208F000364001390843014B1860704700BF000236400E4B1B6894
:4042C00023F4F8730D4A117F0D4AB2FBF1F20D498A4204D843F02003074A136070470A498A4204D843F03003034A1360704743F04003014A13607047FC430208CC87020836
:4043000080F0FA02001BB70000366E01044A054B1A604FF0C17203F580731A60704700BF0000830100043640084A136803F07F0343F0C17343F48033136002F580721368CD
:4043400003F07F0343F400031360704700043640074A136843F0805343F001031360054A054B1A604FF0C17203F580731A607047A8023640000083010004364010B4048859
:40438000012000FA04F4013C04EB840303FA00F00C4BA3FB00035B0901335818844200D220468B4201D8C91A00E00021914203D8904203D2062002E0062000E000205DF8EA
:4043C000044B70471F85EB510023164A136002F5927213600432136006212C3A11604FF48071083A11600121903A1160A2F580724FF48371116012680B4A136003220B4B9A
:404400001A604FF4FA6300E0013B094A126812F0040F01D1002BF7D113B90822034B1A60704700BF8C013640F800364040033640F00036401E4B4FF483721A601B681D4BD5
:40444000B3F90030002B08DB590903F01F03012202FA03F3184A42F821300023174A136030321360043213602C3A13605021983A11600121643A11600C3A136080321368C0
:4044800043F08073136002220D4B1A604FF4FA6300E0013B0B4AD2F8842012F0070F01D0002BF6D140F20132074B1A60704700BFF00036401C62081000E100E080023640B7
:4044C000F8003640000036404003364070B5FFF7F1FCFFF717FE4FF48032404B1A604048036843F0805343F00103036000233D4A136002F5E07213600C32136060321360F0
:40450000A2F5CE72136002F582721360083A1360354C2360A2F5807213604FF0487102F5A8721160314D2A6892F87D60304AB15821F07041B15029688D69521BD209496966
:4045400001EB0212516821F0F85141F08061516028490A6842F480520A604FF48071264A1160026842F0805242F0010202604FF0807222490A6040F64130A1F58E7108604C
:4045800001F584710B602260FFF7C0FE1C4B1B7F013BFF2B0BD8154A12689068B2F87410425822F47F421B029BB213434350FFF785FE144B1B6843F0004343F48053124A2B
:4045C00013600F22114B1A600022A3F588731A600A2203F590731A6070BD00BF04023640A8023640F4003640840236409C8702088003324094023640A0023640A402364021
:40460000CC870208FC430208000036400003364038B50546FDF74DF80D490B6823F07F020C4B1C7825446B7A13430B60FDF745F8FDF73FF808490B6823F07F02074B1B6894
:404640001C44637A13430B60FDF737F838BD00BF00043640AC6A0810000536400C88020830B401248C40631E40B10F2904D9A4F10A03B3FBF0F301E0B3FBF0F3053A012A39
:4046800000D85B080BB9012000E0184630BC704708B50B4B1A780B4B03EB42135B6859891B7B18045A1F012A01D840F00070053B012B02D8490800D10121FFF7F7FD08BD0E
:4046C000EE780208706A081008B5027B01884089FFF7C6FF80B2014B186008BD1403364008B50D4BB3F90030002B0DDB5A0903F01F03012101FA03F32032084941F822300C
:40470000BFF34F8FBFF36F8F0122054B1A60FFF75BFEFFF78FFE08BD1C62081000E100E08001364008B50448FFF718FB1720FCF741FFFFF7D5FF08BD80000100F8B50546E3
:40474000FCF7B7FF06462F682C79072C04D94FF471712048FCF73AFFA4001F4B1B6893F87D00C2590F23A34022EA0301062202FA04F30B43C3512C682D79072D04D94FF45B
:4047800022711448FCF722FF134B1A689369E31ADB0952691B01D118032D0BD8D158ED001F20A84021EA00000B2101FA05F50543D5500BE0043D4B68ED001F22AA4023EA8C
:4047C00002020B2303FA05F515434D603046FCF774FFF8BDB06A08109C87020870B5134E3378134D05EB43135868124C00232370337805EB43139968237803EB83035A0095
:404800000A440D4B1A60FFF703FF33785B01EB58207803EBC000094B1860FFF78FFF0848FFF71CFBFFF77EFF70BD00BFEE780208706A0810ED7802080C88020810880208B3
:404840006D42081008B54001044B185800EBC100034B1860FFF772FF08BD00BF706A081010880208F8B50646FCF723FF074634683579072D04D94FF422712348FCF7A6FE35
:40488000224B1A689369E31ADB0952691B01D118032D08D8D158ED001F2000FA05F521EA0505D55008E0043D4B68ED001F2202FA05F523EA05054D6035683479072C04D9BB
:4048C0004FF471711048FCF781FEA4000F4B1B6893F87D0042590F23A34022EA03010E2202FA04F30B43435135683479072C04D940F281310448FCF769FE0123A3406B60C5
:404900003846FCF7DAFEF8BDB06A08109C87020808B5064B1B78012B06D1054B1868FFF7A1FF0022014B1A7008BD00BFEF7802081088020870B50E4E06EB40135D68C0B285
:404940000C4C2070FFF7E4FF23785B01F2580A4B1A600A4BDA6822F07F02DA602178DA680A43DA602846FFF7AFFEFFF791FE70BD706A0810EE78020810880208CC8702087C
:4049800038B5114B03EB40135D68C9B20F4C21709968237803EB83035A000A440C4B1A60FFF7C8FF2846FFF733FE2078094A136803EBC0001060FFF7C1FE0122064B1A702F
:4049C0000648FFF74BFA38BD706A0810ED7802080C88020810880208EF780208414208102DE9F84307460D4690462D4A11782D4B03EB41135E684FF0000985F80090107868
